:020000040800F2
:10000000A80B00209D010008A5010008A701000819
:10001000A9010008AB010008AD01000800000000C4
:1000200000000000000000000000000005010008C2
:10003000B10100080000000049010008110B000890
:10004000B7010008B7010008B7010008B7010008B0
:10005000B7010008B7010008B7010008B7010008A0
:10006000B7010008B7010008B7010008B701000890
:10007000B7010008B7010008B7010008B701000880
:10008000B7010008B7010008B7010008B701000870
:10009000B7010008B7010008B7010008B701000860
:1000A000B7010008B7010008B7010008B701000850
:1000B000B7010008B7010008B7010008B701000840
:1000C000B7010008B7010008B7010008B701000830
:1000D000B7010008B7010008B7010008B701000820
:1000E000B7010008B7010008B7010008DFF810D019
:1000F00000F07CF800480047410D0008AFF3008095
:10010000A80B0020224B19680868B0E8F00F80F3B4
:100110000988BFF36F8F4FF0000080F311884EF015
:100120000D0E70470000000006480068006880F36C
:10013000088862B661B6BFF34F8FBFF36F8F00DFE1
:1001400000BF00BF08ED00E0EFF30980BFF36F8F41
:100150000F4B1A6820E9F00F106008B54FF05000FF
:1001600080F31188BFF34F8FBFF36F8F00F040FE15
:100170004FF0000080F31188BDE808401968086856
:10018000B0E8F00F80F30988BFF36F8F704700BFAE
:1001900000000020EFF3058070470000064880470C
:1001A00006480047FEE7FEE7FEE7FEE7FEE7FEE75C
:1001B000FEE7FEE7FEE7FEE7210B0008ED00000882
:1001C00030B50B46014600202022012409E021FA27
:1001D00002F59D4205D303FA02F5491B04FA02F524
:1001E0002844151EA2F10102F1DC30BD064C074D7A
:1001F00006E0E06840F0010394E8070098471034F7
:10020000AC42F6D3FFF776FF442E0008642E0008B8
:100210001B48C06940F480001949C86108468069DC
:1002200040F0080088611748006840F47F40154995
:1002300008601548008820F0020013490880081D56
:10024000008840F02400091D08800F481C300088F9
:1002500020F400400C491C3108800846008840F01A
:10026000B4000880081D008840F02500091D0880A2
:100270000548008840F001000349088070470000ED
:1002800000100240040C0140005800400348008860
:1002900020F4806001490880704700000058004049
:1002A0004FF6FF7101E0481E81B20748008800F058
:1002B000400008B90029F6D119B10348001F008891
:1002C00000E00020C0B270471458004002464FF6CC
:1002D000FF7101E0481E81B20E48008800F08000E6
:1002E00008B90029F6D10B48001F02804FF6FF71B4
:1002F00001E0481E81B20748008800F0020008B9FA
:100300000029F6D121B10348001D00880120704763
:100310000020FCE7145800400B48008840F480702F
:10032000094A10804FF6FF7101E0481E81B206486D
:100330001430008800F0010008B90029F5D109B196
:10034000012070470020FCE7005800400348008867
:1003500040F40070014908807047000000580040D8
:1003600002464FF6FF7101E0481E81B20E48008838
:1003700000F0800008B90029F6D109B900207047C3
:100380000948001F02804FF6FF7101E0481E81B24C
:100390000548008800F0040008B90029F6D109B129
:1003A0000120ECE70020EAE7145800400D4880697E
:1003B00040F004000B4988610B4800680B49084372
:1003C000094908600846006809490840064908606C
:1003D00005480C30006840F0100003490C310860FB
:1003E0007047000000100240000801400000333058
:1003F000FFFF333F1749096821F01001154A1160CA
:1004000000211EE0134A126822F02002114B1A60EC
:1004100000F080022AB11A46126842F080021A6087
:1004200005E00C4A126822F080020A4B1A60094A61
:10043000126842F02002074B1A604206100E4A1C56
:10044000D1B20829DEDB0349096841F01001014AF5
:10045000116070470C0801404548C06940F0040035
:100460004349C8610846806940F0080088614148F6
:10047000006840F00B003F4908600846006820F023
:100480000400086040F2CF203B4908800920091D84
:10049000088039482838008820F01000364928396B
:1004A0000880002034491431088033480C38008813
:1004B00020F0030030490C3908800846008840F0DD
:1004C000400008800846008840F020000880084668
:1004D000008820F010000880081D008840F480701B
:1004E000091D08800846008820F400700880214813
:1004F000006840F0B0001F4908600846006820F01E
:100500004000086040F2CF201B4908800920091DE7
:10051000088019482838008820F01000164928392A
:100520000880002014491831088013480C380088CE
:1005300020F4407010490C3908800846008840F4C7
:10054000804008800846008840F400500880084633
:10055000008820F480500880081D008840F48050F6
:10056000091D08800846008820F400500880704764
:1005700000100240040C0140280800401248806925
:1005800040F48040104988610846806940F00400CA
:1005900088610E48006840F0B0000C4908600846C9
:1005A000006840F04000086040F27120084908806F
:1005B000081D008840F00C00091D088008460088CE
:1005C00040F40050088070470010024004080140C9
:1005D0000838014000BF0549098801F08001002961
:1005E000F9D00249091D0880704700000038014019
:1005F00010B5FFF70DFE10BD70B505460C46FFF7B0
:100600008BFED020FFF762FE2846FFF7A9FEFFF71A
:1006100083FED120FFF75AFEFFF738FEFFF740FEBA
:100620002070FFF793FE002070BD000010B5002081
:100630000CE0002106E00022074B03EBC1031A5433
:100640004A1CD1B28029F6DB411CC8B20828F0DB75
:1006500000F0EEF810BD000028030020F0B51446AD
:100660000B46CF1701EB5777C7F3C702CF1701EB44
:100670005777FF10A1EBC707FEB20123B340DDB2ED
:100680004CB1134B03EBC0039B5C2B43104F07EBA8
:10069000C007BB541AE00E4B03EBC0039B5CDB436B
:1006A0000B4F07EBC007BB54094B03EBC0039B5C2C
:1006B0002B43074F07EBC007BB54054B03EBC003AD
:1006C0009B5CDB43024F07EBC007BB54F0BD00004F
:1006D0002803002010B5534CFFF768FE524880698C
:1006E00040F00800504988615048006840F03300ED
:1006F0004E4908600846006820F0CC0008604B486E
:100700000C30006840F0020048490C31086008468F
:10071000006840F0010008600846006820F0010011
:10072000086000BF201EA4F10104FBD13F480C303B
:10073000006840F001003D490C3108600021AE2006
:1007400000F036F90021084600F032F900211020AF
:1007500000F02EF90021402000F02AF9002181202C
:1007600000F026F90021CF2000F022F90021A1207D
:1007700000F01EF90021C82000F01AF90021A6207F
:1007800000F016F90021A82000F012F900213F2006
:1007900000F00EF90021D32000F00AF900210846EC
:1007A00000F006F90021D52000F002F90021802098
:1007B00000F0FEF80021D92000F0FAF80021F12025
:1007C00000F0F6F80021DA2000F0F2F80021122003
:1007D00000F0EEF80021DB2000F0EAF800214020D4
:1007E00000F0E6F80021202000F0E2F800210220CD
:1007F00000F0DEF800218D2000F0DAF8002114204E
:1008000000F0D6F80021A42000F0D2F80021A620A4
:1008100000F0CEF8FFF70AFF0021AF2000F0C8F883
:1008200010BD000000BADB0000100240000C0140C7
:1008300070B500241CE004F1B001C8B2002100F042
:10084000B7F80021084600F0B3F80021102000F0AE
:10085000AFF8002508E0084901EBC501085D01215A
:1008600000F0A6F8681CC5B2802DF4DB601CC4B291
:10087000082CE0DB70BD0000280300202DE9FE4FAE
:100880000746884692461C460197CDF80080082C02
:1008900002D14FF006091FE02046E31704EB537323
:1008A000DB1021464FEAE47C04EB5C7C4FEAEC0C65
:1008B000A4EBCC0CBCF1000F02D04FF0010C01E016
:1008C0004FF0000C6344224604EBD27C4FEA6C0CE0
:1008D00003FB0CF303F0FF09AAF12000C6B20025C8
:1008E00060E0082C07D106EB4600304901EB4000E0
:1008F00010F805B01FE00C2C07D106EB46002B4981
:1009000001EB400010F805B015E0102C07D106EB04
:100910004600264901EB400010F805B00BE0182C0A
:1009200007D106EB4600214901EB400010F805B065
:1009300001E0BDE8FE8F002002901CE00BF00100FA
:1009400028B1414638460C9AFFF788FE09E00C981A
:1009500008B9012000E00020024641463846FFF772
:100960007DFE4FEA6B0B08F1010000F0FF080298D2
:10097000401CC0B2029002980828DFDB781CC7B286
:10098000082C0BD004EBD4714A100199791A8A42D1
:1009900004D1019F00980830C0B20090DDF80080BB
:1009A000681CC5B24D459CDB00BFC2E7341000088F
:1009B00070B505460C4634B10B48006840F00200A3
:1009C0000949086005E00848006820F0020006496F
:1009D00008602846FFF70EFD0348006840F002005B
:1009E0000149086070BD00000C0C014010B5FFF714
:1009F00033FD0948806940F00800074988610748CD
:100A00000068074908430549086008460068054929
:100A100008400249086010BD00100240040C01406B
:100A200000003333FFFF333310B500F001F810BD81
:100A30000CB50020019000903348006840F48030ED
:100A40003149086000BF3048006800F40030009071
:100A50000198401C0190009818B90198B0F5A06F5A
:100A6000F1D12948006800F4003010B10120009055
:100A700001E0002000900098012843D1234800683D
:100A800040F01000214908600846006820F0070087
:100A900008600846006840F0020008601A48406894
:100AA000194948600846406848600846406840F474
:100AB000806048600846406820F47C104860084622
:100AC000406840F4E81048600846006840F08070D4
:100AD000086000BF0C48006800F000700028F9D0E2
:100AE0000948406820F0030007494860084640680C
:100AF00040F00200486000BF0348406800F00C006E
:100B00000828F9D10CBD000000100240002002406E
:100B100010B500F0B7F9012801D000F099F910BD27
:100B200010B51348006840F00100114908600846FC
:100B30004068104908400E494860084600680E4960
:100B400008400B4908600846006820F480200860CF
:100B50000846406820F4FE0048604FF41F0088609B
:100B6000FFF762FF4FF000600449086010BD00000D
:100B7000001002400000FFF8FFFFF6FE08ED00E065
:100B80000FB4054B10B503A9044A029800F018F8F9
:100B900010BC5DF814FB0000310D0008400000207F
:100BA00002E008C8121F08C1002AFAD17047704736
:100BB000002001E001C1121F002AFBD17047000094
:100BC0002DE9FF4F89B09B460446002506E0252805
:100BD0000BD05A460B999047641C6D1C2078002856
:100BE000F5D10DB02846BDE8F08F0027B8460122A8
:100BF000474900E0074314F8013F203B02FA03F0A5
:100C00000842F7D120782E2819D114F8010F47F0A7
:100C100004072A280ED06FF02F022078A0F13001AF
:100C200009290CD808EB880102EB410100EB01080F
:100C3000641CF2E70A98641C50F8048B0A90207830
:100C40000028CED0642808D0692806D075281ED088
:100C50005A460B9990476D1C58E00A994FF00A09C3
:100C600001C90A91002802DA40422D2102E039052B
:100C700004D52B218DF82010012103E0F90704D0C1
:100C80002021F7E78A4608AE0DE00021FAE70A992D
:100C90004FF00A0901C90A91F7E74946FFF790FAB0
:100CA000303106F8011D0028F7D1ADEB060000F148
:100CB0002009780701D44FF00108C84502DDA8EBF0
:100CC000090000E000208046002706E008A85A46F8
:100CD000C05D0B9990476D1C7F1C5745F6DB04E007
:100CE00030205A460B9990476D1CB8F10001A8F1CD
:100CF0000108F5DC05E016F8010B5A460B99904700
:100D00006D1CB9F10001A9F10109F4DC641C65E76F
:100D100009280100054A42430923B2FBF3F100BF51
:100D200000BF0A1EA1F10101FAD17047401901006C
:100D300000B502460B46D0B2FFF74CFC104600BD92
:100D40001CB5FFF71BFC15A0FFF71AFFFFF7C2FC4D
:100D5000FFF76CFC01220A210846FFF77FFC012007
:100D600008236122142100900846FFF787FDFFF752
:100D70005FFDFFF73BFE6420FFF7CCFFFFF738FC79
:100D80000020019001A97520FFF736FC20B99DF8DD
:100D9000041005A0FFF7F4FE00BFFEE768656C6C69
:100DA0006F2E2E2E0D0A0000B6C1C8A1B5BD4D5044
:100DB0005536303530B5C449443A25640D0A000033
:100DC00009480068006808B9012000E0002020B14F
:100DD0004FF0FF300549086005E003480068C0682F
:100DE00000680249086070470400002030000020BD
:100DF0001248006818B10120114908601DE0002068
:100E00000F4908600F480068B0FA80F0C0F11F0178
:100E100001EB81020C4B03EB820042685268426096
:100E200000F108024368934202D14268526842606E
:100E30004268D268054B1A6000BF70473C00002032
:100E400024000020180000204400002000000020A2
:100E500010B500BF502080F31188BFF34F8FBFF350
:100E60006F8F00BF00F01EF818B14FF0805004499A
:100E7000086000BF002080F3118800BF10BD000093
:100E800004ED00E00549096809B9012005E00449BD
:100E9000096809B9022000E0002070471C0000200A
:100EA0003C0000202DE9F041002757480068002849
:100EB0007ED156480068451C544805608DB9544899
:100EC000D0F8008053480068514908605148C0F884
:100ED000008051480068401C4F490860FFF770FFD0
:100EE00000BF4E480068854276D300BF484800687E
:100EF000006808B9012000E0002020B14FF0FF3069
:100F00004649086067E042480068C068C46866688F
:100F1000B54202D2414806605DE06069D4E9021240
:100F20008A60D4E902214A60211D42688A4201D1C7
:100F3000E1684160002262610168491E0160A06AA7
:100F400098B1A06AD4E907128A60D4E907214A60FF
:100F500004F1180142688A4201D1216A41600022ED
:100F6000A2620168491E016000BF94F82C100120A4
:100F700088402B490968084329490860E16A01EB68
:100F80008101284A02EB81014868A0608268E26022
:100F9000211D826851608160E16A01EB8101214A73
:100FA00002EB81026261E16A01EB81011D4A00E00E
:100FB00022E052F82110491CE26A02EB8202194B2E
:100FC00043F822101849E06A0968C96A88428DD935
:100FD00001278BE700E000BF13480068C06A00EB00
:100FE0008000104951F82000012800D901270F483E
:100FF000006800B1012704E00D480068401C0C495E
:1010000008603846BDE8F0813C0000201400002054
:1010100004000020080000202800002030000020EC
:1010200018000020440000200000002024000020C0
:10103000200000200000000000000000002F000041
:1010400000000700070000147F147F1400242A7F8B
:101050002A1200626408132300364955225000000A
:101060000503000000001C224100000041221C007A
:101070000014083E08140008083E0808000000A0FC
:1010800060000008080808080000606000000020F8
:1010900010080402003E5149453E0000427F4000D6
:1010A000004261514946002141454B31001814125C
:1010B0007F10002745454539003C4A494930000129
:1010C0007109050300364949493600064949291E78
:1010D00000003636000000005636000000081422DA
:1010E00041000014141414140000412214080002DA
:1010F0000151090600324959513E007C1211127CFF
:10110000007F49494936003E41414122007F41412B
:10111000221C007F49494941007F09090901003E1D
:101120004149497A007F0808087F0000417F41005B
:10113000002040413F01007F08142241007F4040D1
:101140004040007F020C027F007F0408107F003EB9
:101150004141413E007F09090906003E4151215E9F
:10116000007F091929460046494949310001017F9C
:101170000101003F4040403F001F2040201F003F32
:101180004038403F006314081463000708700807E4
:1011900000615149454300007F41410000552A55F7
:1011A0002A55000041417F00000402010204004072
:1011B0004040404000000102040000205454547894
:1011C000007F4844443800384444442000384444B4
:1011D000487F00385454541800087E090102001852
:1011E000A4A4A47C007F080404780000447D40008F
:1011F000004080847D00007F102844000000417F73
:101200004000007C04180478007C0804047800384E
:101210004444443800FC242424180018242418FCD6
:10122000007C0804040800485454542000043F443F
:101230004020003C4040207C001C2040201C003C02
:101240004030403C004428102844001CA0A0A07C52
:10125000004464544C44141414141414000000008A
:1012600000000000000000000000FC000000000082
:1012700002000000000C020C020000000000000050
:1012800090D0BCD0BC900003000300001824FE44A2
:101290008C000302070201001824D8B04C80000320
:1012A00000010201C038E438E0000102020102023C
:1012B000080600000000000000000000000000F828
:1012C0000402000000010204000204F8000000040F
:1012D000020100009060F860900000000100000032
:1012E0002020FC2020000000010000000000000081
:1012F0000000080600000000202020202000000040
:1013000000000000000000000000000200000000DB
:101310000080601C0200040300000000F8040404C4
:10132000F8000102020201000008FC0000000002B7
:101330000302000018844424180003020202020081
:1013400008042424D80001020202010040B088FCF5
:1013500080000000000302003C242424C400010299
:1013600002020100F824242CC00001020202010044
:101370000C04E41C0400000003000000D824242412
:10138000D80001020202010038444444F80000037E
:101390000202010000001000000000000200000036
:1013A000000020000000000006000000002050881F
:1013B0000402000000000102909090909000000054
:1013C000000000000002048850200002010000001C
:1013D0001804C4241800000002000000F804E4947B
:1013E000F80001020202020000E09CF0800002030B
:1013F0000000030204FC2424D800020302020100BE
:10140000F80404040C0001020202010004FC0404BC
:10141000F80002030202010004FC24740C00020321
:101420000202030004FC24740C000203020000000A
:10143000F0080444CC4000010202010004FC20201A
:10144000FC040203000003020404FC040400020282
:1014500003020200000404FC040406040403000068
:1014600004FC24D00C0402030200030204FC040068
:101470000000020302020203FC3CC03CFC0003002B
:101480000300030004FC30C4FC0402030200030058
:10149000F8040404F80001020202010004FC242400
:1014A0001800020302000000F8848404F80001021E
:1014B0000207050004FC24649800020302000302F2
:1014C000182424448C000302020201000C04FC04D2
:1014D0000C0000020302000004FC0000FC040001F8
:1014E00002020100047C80E01C04000003000000F4
:1014F0001CE03CE01C00000300030000049C609C16
:101500000400020300030200041CE01C04000002AB
:10151000030200000C84641C0400020302020300A6
:101520000000FE020200000007040400000E30C0AC
:101530000000000000010200000202FE00000004A2
:101540000407000000040204000000000000000086
:101550000000000000000808080808080000020059
:1015600000000000000000000040A0A0C00000013A
:101570000202030204FC2020C0000003020201005A
:1015800000C02020600000010202020000C02024F0
:10159000FC0000010202030200C0A0A0C000000184
:1015A000020202000020F8242404000203020200C8
:1015B0000040A0A0602000070A0A0A0404FC2020C2
:1015C000C0000203020003020020E4000000000249
:1015D00003020000000020E40000080808070000E3
:1015E00004FC80E020200203020003020404FC004B
:1015F0000000020203020200E020E020C00003001D
:101600000300030020E02020C000020302000302C8
:1016100000C02020C00000010202010020E02020C4
:10162000C000080F0A02010000C02020E0000001F5
:10163000020A0F0820E04020200002030200000000
:101640000060A0A020000002020203000020F82099
:10165000000000000102020020E00020E000000184
:101660000202030220E0208060200000030100004D
:101670006080E08060000003000300002060806064
:10168000200002030003020020E020806020080800
:10169000070100000020A0602000000203020200F9
:1016A000000020DE0200000000070400000000FF30
:1016B00000000000000F00000002DE200000000417
:1016C0000700000002010204040200000000000004
:1016D000000000000000000000000000000000000A
:1016E000000000F80000000000000033300000009F
:1016F00000100C06100C06000000000000000000A6
:1017000040C07840C0784000043F04043F04040017
:10171000007088FC08300000001820FF211E000027
:10172000F008F000E018000000211C031E211E003C
:1017300000F00888700000001E21232419272110C2
:1017400010160E0000000000000000000000000065
:10175000000000E01804020000000007182040000C
:1017600000020418E00000000040201807000000FC
:10177000404080F0804040000202010F0102020060
:10178000000000F0000000000101011F0101010044
:10179000000000000000000080B0700000000000A9
:1017A0000000000000000000000101010101010132
:1017B00000000000000000000030300000000000C9
:1017C000000000008060180400601806010000009E
:1017D00000E010080810E000000F102020100F009B
:1017E000001010F8000000000020203F2020000022
:1017F000007008080888700000302824222130007A
:1018000000300888884830000018202020110E0081
:101810000000C02010F8000000070424243F24002A
:1018200000F80888880808000019212020110E00FF
:1018300000E0108888180000000F112020110E0011
:1018400000380808C83808000000003F0000000009
:101850000070880808887000001C222121221C00CA
:1018600000E010080810E0000000312222110F00F3
:10187000000000C0C0000000000000303000000088
:1018800000000080000000000000806000000000F8
:101890000000804020100800000102040810200011
:1018A000404040404040400004040404040404005C
:1018B00000081020408000000020100804020100F1
:1018C000007048080808F0000000003036010000F1
:1018D000C030C828E810E0000718272423140B00A4
:1018E0000000C038E0000000203C2302022738201E
:1018F00008F8888888700000203F202020110E0002
:10190000C0300808080838000718202020100800F8
:1019100008F808080810E000203F202020100F00E1
:1019200008F88888E8081000203F202023201800AD
:1019300008F88888E8081000203F20000300000015
:10194000C03008080838000007182020221E0200B6
:1019500008F808000008F808203F210101213F2075
:10196000000808F8080800000020203F20200000A0
:1019700000000808F8080800C08080807F00000090
:1019800008F888C028180800203F200126382000C9
:1019900008F8080000000000203F20202020300030
:1019A00008F8F800F8F80800203F003F003F20004A
:1019B00008F830C00008F808203F200007183F0052
:1019C000E01008080810E0000F10202020100F0081
:1019D00008F808080808F000203F21010101000074
:1019E000E01008080810E0000F18242438504F00B9
:1019F00008F8888888887000203F2000030C302079
:101A000000708808080838000038202121221C00B6
:101A1000180808F8080818000000203F20000000FF
:101A200008F808000008F808001F202020201F00E8
:101A30000878880000C83808000007380E01000048
:101A4000F80800F80008F800033C0700073C030012
:101A5000081868808068180820302C03032C302078
:101A60000838C800C83808000000203F20000000E7
:101A700010080808C838080020382621202018003F
:101A8000000000FE020202000000007F4040400013
:101A9000000C30C000000000000000010638C0004B
:101AA00000020202FE000000004040407F000000F3
:101AB0000000040202020400000000000000000018
:101AC0000000000000000000808080808080808016
:101AD00000020204000000000000000000000000FE
:101AE00000008080808000000019242222223F20F4
:101AF00008F8008080000000003F112020110E0037
:101B00000000008080800000000E112020201100C5
:101B1000000000808088F800000E112020103F2077
:101B20000000808080800000001F222222221300FB
:101B3000008080F0888888180020203F2020000046
:101B40000000808080808000006B949494936000FB
:101B500008F8008080800000203F210000203F2006
:101B600000809898000000000020203F2020000006
:101B7000000000809898000000C08080807F0000F6
:101B800008F8000080808000203F24022D302000D3
:101B9000000808F8000000000020203F202000007E
:101BA0008080808080808000203F20003F20003F98
:101BB0008080008080800000203F210000203F20A6
:101BC0000000808080800000001F202020201F0057
:101BD000808000808000000080FFA12020110E0086
:101BE0000000008080808000000E112020A0FF8077
:101BF000808080008080800020203F212000010024
:101C00000000808080808000003324242424190078
:101C1000008080E0808000000000001F2020000085
:101C20008080000000808000001F202020103F20C6
:101C3000808080000080808000010E300806010056
:101C400080800080008080800F300C030C300F00FB
:101C500000808000808080000020312E0E31200026
:101C6000808080000080808080818E701806010056
:101C700000808080808080000021302C2221300074
:101C800000000000807C020200000000003F404095
:101C900000000000FF00000000000000FF00000046
:101CA0000002027C800000000040403F0000000075
:101CB0000006010102020404000000000000000010
:101CC0000000000000000000000000000000000014
:101CD0000000000000000000000000000000000004
:101CE000000000000000000000F0F0F00000000024
:101CF0000000000000017F01000000000000000063
:101D0000001C1C1C0000000000008060301C8C6067
:101D1000301C0C000000000000000000000000006B
:101D2000000000000000000000000000000000E0D3
:101D30000000000000E000000086E69F86868686A0
:101D4000E69F860000011F01010101011F01010042
:101D5000000080C06020F820E0C000000000030701
:101D60000C18FF70E18100000000070F10107F10B9
:101D70000F0700008060206080000000E02000006D
:101D80000F3020309F70DC371030C0000000100E84
:101D900003000718101807000000C02020E0C00052
:101DA0000000000080E01F38E88703C43C04000006
:101DB000070F1810100B070D1010080000808C4C36
:101DC00038000000000000000000000000000000DB
:101DD0000000000000000000000000000000000003
:101DE00000000000000080E0300804000000000057
:101DF00000FEFF0100000000000000000000030FD3
:101E00001820400000040830E080000000000000BE
:101E10000000000001FFFE0000000000004020184C
:101E20000F03000000000000000000000000C000E0
:101E300000000000004266663C18FF183C666642DF
:101E4000000000000000030000000000000000008F
:101E50000000800000000000001010101010FF10A3
:101E6000101010100000000000000300000000002F
:101E70000000000000000000000000000000000062
:101E8000000000000000000000808C4C38000000C2
:101E90000000000000000000000000000000000042
:101EA0000010101010101010101010000000000092
:101EB0000000000000000000000000000000000022
:101EC0000000000000000000000000000000000012
:101ED00000001C1C1C0000000000000000000000AE
:101EE00000000000E0380C000000000080701C03BF
:101EF000000000000060380E01000000000000003B
:101F0000000080C060202060C080000000FEFF0153
:101F10000000000001FFFE000001070E181010185D
:101F20000E0701000000808080C0E000000000007B
:101F30000000000000FFFF00000000000000101083
:101F4000101F1F1010100000008040202020206073
:101F5000C080000000030300804020381F070000FD
:101F6000001C1A1918181818181F00000080C0202B
:101F7000202060C080000000000303001010182F14
:101F8000E780000000070F10101010180F07000066
:101F9000000000000000C0E0F000000000C0B088B9
:101FA000868180FFFF808000000000000010101F6D
:101FB0001F1010000000E060606060606060000062
:101FC00000003F1008080818F0E0000000070B10A0
:101FD0001010101C0F030000000080C040202020C3
:101FE000E0C0000000FCFF211008080818F0E00025
:101FF0000001070C18101010080F03000000C0E0CB
:102000006060606060E06000000003000000E018B5
:102010000700000000000000001F1F00000000007B
:102020000080C0602020202060C080000087EF2C4E
:102030001818303068CF830000070F0810101010F8
:10204000180F07000000C0C020202020C080000022
:10205000001F3F604040402010FFFE0000000C1CAD
:10206000101010080F030000000000000000000026
:102070000000000000000000000E0E0E0000000036
:1020800000000000001C1C1C0000000000000000FC
:10209000000000000000000000000000000C0C0028
:1020A00000000000000000000058380000000000A0
:1020B00000000000000000804020100000001028F8
:1020C0004482010000000000000000000000010246
:1020D00004081000000000000000000000000000E4
:1020E00000848484848484848484840000000000C8
:1020F00000000000000000000000102040800000F0
:1021000000000000000000000000018244281000D0
:1021100000001008040201000000000000C02020A0
:102120001010101030E0C0000003030000F0100891
:102130000C070300000000001C1C1C000000000035
:10214000000000C0406020202040C00000FCFF01D3
:10215000F00E03C1FE03807F0001070E081111106D
:10216000110904020000000080E0E000000000000F
:102170000000807C4340477FF880000010181F104B
:1021800000000000131F1C1020E0E0202020206031
:10219000C080000000FFFF10101010182FE7800013
:1021A000101F1F1010101010180F0700000080C023
:1021B000402020202060E00000FCFF010000000023
:1021C000000001000001070E1810101008040300A1
:1021D00020E0E02020202040C080000000FFFF0021
:1021E0000000000001FFFE00101F1F101010180853
:1021F0000E07010020E0E020202020202060800049
:1022000000FFFF101010107C00000000101F1F10B6
:10221000101010101018060020E0E02020202020D0
:102220006060800000FFFF101010107C00000100B3
:10223000101F1F100000000000000000000080C000
:102240006020202040E0000000FCFF010000404032
:10225000C0C140400001070E181010100F0F000001
:1022600020E0E0200000000020E0E02000FFFF1060
:102270001010101010FFFF00101F1F1000000000B2
:10228000101F1F100000202020E0E0202020000070
:102290000000000000FFFF00000000000000101020
:1022A000101F1F101010000000000000202020E070
:1022B000E020202000000000000000FFFF000000E0
:1022C0000060E0808080C07F3F00000020E0E020D0
:1022D000000020A06020200000FFFF30187CE3C039
:1022E00000000000101F1F10000001131F1C181019
:1022F00020E0E020000000000000000000FFFF00E0
:102300000000000000000000101F1F10101010102F
:102310001018060020E0E0E000000000E0E0E0200F
:1023200000FF013FFEC0E01E01FFFF00101F100074
:10233000031F0300101F1F1020E0E0C0000000007A
:102340000020E02000FF0003071C78E08000FF0071
:10235000101F100000000000030F1F00000080C0CD
:1023600060202060C080000000FEFF01000000002F
:1023700000FFFE000001070E181010180C070100E6
:1023800020E0E0202020202060C0800000FFFF200F
:1023900020202020301F0F00101F1F100000000001
:1023A00000000000000080C060202060C0800000AD
:1023B00000FEFF010000000000FFFE000001070E0C
:1023C0001111133C7C67210020E0E0202020202018
:1023D00060C0800000FFFF101030F0D0080F070031
:1023E000101F1F10000000030F1C10100080C060A1
:1023F000202020204040E00000070F0C181830304B
:1024000060E08100001F0C0810101010180F07006A
:102410008060202020E0E02020206080010000007B
:1024200000FFFF000000000100000000101F1F104F
:102430000000000020E0E020000000000020E0207C
:1024400000FFFF00000000000000FF0000070F1861
:1024500010101010100807002060E0E020000000BD
:1024600020E060200000077FF88000807C030000EF
:1024700000000000071F1C070000000020E0E02013
:1024800000E0E0200020E0200007FFF8E01FFFFC54
:10249000E01F00000000031F0300011F03000000F5
:1024A000002060E0A0000020E060200000000003A9
:1024B0008F7CF8C6010000000010181E13000117E1
:1024C0001F1810002060E0E02000000020E06020E5
:1024D000000001073EF8E0180700000000000010AF
:1024E000101F1F101000000000806020202020A07E
:1024F000E0E0200000000000C0F03E0F03000000FC
:1025000000101C1F1710101010180600000000000B
:1025100000FC0404040404000000000000FF0000AC
:102520000000000000000000007F404040404000EC
:10253000000010E0000000000000000000000000AB
:10254000031C608000000000000000000000000389
:102550000C70800000000404040404FC000000006F
:1025600000000000000000FF0000000000004040EC
:102570004040407F0000000000000010080C040CE8
:102580000810000000000000000000000000000033
:10259000000000000000000000000000000000003B
:1025A000000000000000000000000000000000002B
:1025B000000000008080808080808080808080801B
:1025C00000000004040808000000000000000000F3
:1025D00000000000000000000000000000000000FB
:1025E00000000000000000000000000000000000EB
:1025F000000098D844642424FCF80000000F1F1841
:10260000101010081F1F10180020E0F0000000003C
:10261000000000000000FFFF180804040CF8F000A0
:1026200000001F0F18101010180F0300000000000A
:10263000000000000000000000E0F8180404043C62
:102640003800000000030F0C1010101008060000E6
:102650000000000000000020E0F0000000E0F81C96
:1026600004040408FFFF000000030F1810101008F6
:102670001F0F080000000000000000000000000024
:102680000000E0F8484444444C7870000000030F18
:102690000C181010100804000000000080C060201A
:1026A00020E0C00000040404FFFF04040404000050
:1026B000000010101F1F101010000000000000008C
:1026C0000000000000000000000070F88C04048C82
:1026D000F874040C007076CF8D8D8D89C8787000E9
:1026E0000020E0F000000000000000000000FFFFFC
:1026F00008040404FCF8000000101F1F1000001064
:102700001F1F1000000000000060600000000000BB
:102710000000040404FCFC00000000000000101095
:10272000101F1F10101000000000000000000060CB
:102730006000000000000000040404FCFC00000035
:102740000000C0C08080C07F3F0000000020E0F09B
:1027500000000000000000000000FFFF80C0F41C2B
:102760000404000000101F1F1100031F1C101000A4
:102770000000202020E0F000000000000000000029
:1027800000FFFF000000000000001010101F1F10CD
:102790001010000000000000000000000000000019
:1027A00004FCFC0804FCFC0804FCFC00101F1F10C7
:1027B000001F1F10001F1F1000000000000000007D
:1027C000000000000004FCFC08080404FCF8000001
:1027D00000101F1F100000101F1F1000000000003D
:1027E000000000000000000000E0F0180C04040CE1
:1027F00018F0E00000030F0C101010100C0F030075
:102800000000000000000000000000000004FCFCCC
:10281000080404040CF8F0000080FFFF88901010FA
:102820001C0F03000000000000000000000000007A
:1028300000E0F81C04040408F8FC000000030F1872
:1028400010109088FFFF80000000000000000000D2
:1028500000000000040404FCFC100804040C0C003C
:102860001010101F1F1010100000000000000000CA
:10287000000000000000000000003078CCC4848418
:10288000840C1C0000001E1810101011190F0600F7
:102890000000000000C0000000000000000404046C
:1028A000FFFF040404000000000000000F1F1010D0
:1028B000100C0000000000000000000000000000FC
:1028C0000004FCFE00000004FCFE000000000F1FDE
:1028D000181010081F0F0800000000000000000082
:1028E0000000000000040C3CFCC40000C43C0C04CC
:1028F00000000000010F1E0E01000000000000009B
:102900000000000000000000043CFCC400E47CFC6B
:1029100084807C040000071F070000071F070000D9
:102920000000000000000000000000000004041C83
:102930007CE4C0341C0404000010101C1601131F9A
:102940001C18100000000000000000000000000043
:1029500000040C3CFCC400C43C0404000000C08023
:10296000C1370E0100000000000000000000000060
:102970000000000000001C0404C4F47C1C040000DF
:102980000000101C1F17111010180E00000000008E
:10299000000000F80C04000000000000001028EF08
:1029A00000000000000000000000003F6040000048
:1029B000000000000000FF00000000000000000018
:1029C0000000FF0000000000000000000000FF0009
:1029D000000000000000040CF800000000000000EF
:1029E00000000000EF281000000000000000406020
:1029F0003F0000000000000000180602020408105A
:102A0000202030080000000000000000000000004E
:102A10000000000000000000000000000000F010B6
:102A2000101010FF10101010F000000000000F0434
:102A3000040404FF040404040F0000004040405F4D
:102A4000555555755555555F404040000040200F85
:102A5000094989790909090F2040000000FE024256
:102A60004ACA4A4ACA4A4A4202FE000000FF40508F
:102A70004C4340404F50505C40FF00000000F8883D
:102A8000888888FF88888888F800000000001F0870
:102A90000808087F888888889F80F000808282826A
:102AA000828282E2A2928A868280800000000000F8
:102AB0000040807F0000000000000000101010FFA8
:102AC000109008888888FF88888808000444827FDE
:102AD00001808040432C1028468180000010101097
:102AE00010D030FF30D0121C10100000100804026B
:102AF000010000FF00000102040810000404048427
:102B0000E43C2724242424E40404040004020100F7
:102B1000FF0909090949897F0000000000FE225AC7
:102B20008600FE9292929292FE00000000FF04083E
:102B30000700FF4020030C14224140000080402089
:102B40001806800007182040800000000100207057
:102B50002826212020243860000101000010129254
:102B60009292929292121202FE0000000000003F28
:102B7000101010103F0040807F000000000000C0D7
:102B800080808080808080FC84808080808080C085
:102B9000C0000000000000FF7F404040404040FF78
:102BA00040404040404040FF7F00000000000000E7
:102BB000000000000000007F700000000000000026
:102BC0000000000000000000000000000000000005
:102BD000000000FCF8000000000000000000000001
:102BE0000000000000000000FFFE020202020202DC
:102BF000020202FFFF020202020202020202FF03BD
:102C000000000000000000001F1F0404040404046E
:102C1000040404FFFF0404040404040404041F0067
:102C200000000000000000000000000000000000A4
:102C30000000007F3F0000000000000000000000D6
:102C40000000000000000000000000000000000084
:102C50000000000000000000000000000000000074
:102C600000F8F8F0F0702000000000000000000004
:102C70000000000000000000000000000000000054
:102C800000000000000000000000000080000000C4
:102C90000000000000000000000000000000000034
:102CA00000FFFFFFFF000000000000000000000028
:102CB0000000000000000000808000000000000014
:102CC00000000000000000000000000000FFFFFE08
:102CD0000606060606060606060606060606060694
:102CE00006FFFFFFFF0606060606060606060606A0
:102CF00006060606060606FFFFFFFF0702000000A5
:102D000000000000000000000000000000FFFFFFC6
:102D100000000000000000000000000000000000B3
:102D200000FFFFFFFF0000000000000000000000A7
:102D300000000000000000FFFFFFFF000000000097
:102D400000000000000000000000000000FFFFFF86
:102D500018181818181818181818181818181818F3
:102D600018FFFFFFFF181818181818181818181847
:102D700018181818181818FFFFFFFF0000000000AF
:102D8000000000000000000000000000020101003F
:102D90000000000000000000000000000000000033
:102DA00000FFFFFFFF000000000000000000000027
:102DB0000000000000000001010000000000000011
:102DC0000000000000000000000000000000000003
:102DD00000000000000000000000000000000000F3
:102DE00000FFFFFFFF0000000000000000000000E7
:102DF00000000000000000000000000000000000D3
:102E000000000000000000000000000000000000C2
:102E100000000000000000000000000000000000B2
:102E2000001F1F0F0F000000000000000000000046
:102E30000000000000000000000000000000000092
:102E400000000000642E0008000000204400000084
:102E5000A00B0008A82E000844000020640B00000E
:102E6000B00B00080000000000000000000000009F
:102E70000000000000000000000000000000000052
:102E80000000000000000000000000000000000042
:102E90000000000000000000000000001F00000013
:082EA00000000000000000002A
:04000005080000ED02
:00000001FF
