:020000040800F2
:10000000A84800209D010008A5010008A7010008DC
:10001000A9010008AB010008AD01000800000000C4
:1000200000000000000000000000000005010008C2
:10003000B10100080000000049010008A5210008E6
:10004000B7010008B7010008B7010008B7010008B0
:10005000B7010008B7010008B7010008B7010008A0
:10006000B7010008B7010008B7010008B701000890
:10007000B7010008B7010008B7010008B701000880
:10008000B7010008B7010008B7010008B701000870
:10009000B7010008B7010008B7010008B701000860
:1000A000B7010008B7010008B7010008B701000850
:1000B000B7010008B7010008B7010008B701000840
:1000C000B7010008B7010008B7010008B701000830
:1000D000B7010008B7010008B7010008B701000820
:1000E000B7010008B7010008B7010008DFF810D019
:1000F00000F0B0FC00480047B1300008AFF30080CA
:10010000A8480020224B19680868B0E8F00F80F377
:100110000988BFF36F8F4FF0000080F311884EF015
:100120000D0E70470000000006480068006880F36C
:10013000088862B661B6BFF34F8FBFF36F8F00DFE1
:1001400000BF00BF08ED00E0EFF30980BFF36F8F41
:100150000F4B1A6820E9F00F106008B54FF05000FF
:1001600080F31188BFF34F8FBFF36F8F03F010FC44
:100170004FF0000080F31188BDE808401968086856
:10018000B0E8F00F80F30988BFF36F8F704700BFAE
:1001900000000020EFF3058070470000064880470C
:1001A00006480047FEE7FEE7FEE7FEE7FEE7FEE75C
:1001B000FEE7FEE7FEE7FEE7B5210008ED000008D8
:1001C000D2B201E000F8012B491EFBD27047002299
:1001D000F6E710B513460A4604461946FFF7F0FF46
:1001E000204610BDF0B480EA0102D40F4200B2EB09
:1001F000410F02D20246084611464A0042D0C30DC2
:10020000DDB2C1F3C752AD1A202D35DAC1F31601A4
:1002100041F4000204B15242C5F1200602FA06F18F
:100220002A411044B3EBD05F23D0C4B1012DA0EB21
:10023000C35009DCF0BC4FF0004202EAC352DBB20B
:1002400000F5000000F032BB400000F1807000EBD0
:10025000C350A0F1807040EAD170490009E049081C
:1002600041EAC071A0EBC35000F50000400800EB6C
:10027000C350F0BC00F011BB6142012202EB41010E
:10028000001BF6E7F0BC704781F00041AAE780F060
:100290000040A7E780EA010210B502F000434000E9
:1002A00022D04A001FD0010E01EB1261C0F35600AC
:1002B000C2F3560240F4000042F40002A0FB022008
:1002C00000047F39140400D0401C50EA124001D4CD
:1002D0004000491EC2B20C0604EBD010401C40087E
:1002E000802A02D003E0002010BD20F00100002988
:1002F00000DA0020184310BD30B480EA010202F099
:10030000004530F0004221F0004013D090B1C30D01
:10031000D40DC2F31601C0F31600E41A41F4000133
:1003200040F400027D34914201D3641C00E0490096
:10033000002C02DA30BC002070474FF4000000238C
:10034000914201D3891A034340084FEA4101F7D192
:1003500051B1914202D14FF0004105E002D24FF07D
:10036000010101E06FF0010103EBC450284430BCEF
:1003700000F093BA2DE9FE4F804681EA0300C00FDA
:100380000C46009021F0004123F00045B8EB02003C
:10039000A94105D24046214690461C460B460246DE
:1003A00023F00040104347D0270DC7F30A00C3F3E2
:1003B0000A510290401A019040286BDAC3F31300EF
:1003C00040F4801B0098924620B10023D2EB030A30
:1003D00063EB0B0B01985946C0F14002504600F008
:1003E0002BFA06460D4650465946019A00F043FA4C
:1003F00010EB08006141002487EA115284EAE77398
:100400001A4340D0009A62B3019A012A4FEA075278
:1004100015DC001B61EB02014FF0004202EA0752BB
:10042000CDE90042001C41F5801132462B4600F018
:100430007AFA03B0BDE8F08F40462146F9E7001B89
:1004400061EB0201001C41F5801300185B4120188C
:10045000A2F5001747EB030140EAD570B6196D41CC
:1004600011E06D084FEA360645EAC0754FEA0752BB
:10047000001B61EB0201001C41F5801149084FEAA5
:1004800030000019514132462B4603B0BDE8F04F11
:1004900000F03ABA0098012240000023D0EB02029B
:1004A00063EBE073009821464FEAE074B8EB00007C
:1004B00061EB0401E9E783F000435BE781F0004171
:1004C00058E72DE9FE4F81EA030404F0004421F0CF
:1004D000004100944FF0000B23F0004350EA010468
:1004E0005ED052EA03045BD0C3F30A54C1F30A5549
:1004F0002C44A4F2F3340194A0FB0254C1F3130181
:1005000041F48011C3F3130343F4801301FB02444D
:1005100000FB034E840A970A44EA815447EA835752
:10052000A4FB076802958D0A05FB07854FEA932C0B
:1005300004FB0C542705029D4FEA065847EA16377C
:10054000B5EB08056EEB070C870E920E47EA811794
:1005500042EA8312A7FB0201B6EB0B0164EB000435
:100560002B0D43EA0C335E1844EB1C50DA4651461F
:10057000E7FB0201C5F313044FEA0B3343EA1453BC
:100580004FEA0432019C43EA0603A4F10C040294EE
:10059000009CCDE900B400F0C6F903B0BDE8F08FCF
:1005A00000200146F9E72DE9F04D81EA030404F04B
:1005B000004B21F0004514464FF0000A23F00041A3
:1005C00050EA050220D054EA01021DD0C5F30A57B3
:1005D0000246C5F31303C1F31300C1F30A5640F4F6
:1005E000801543F48013A7EB0608101BD64608F2CB
:1005F000FD3873EB050002D308F1010801E0921801
:100600005B41B8F1000F03DA00200146BDE8F08D30
:1006100000204FF48011064684460EE0171B73EB52
:10062000050705D3121B63EB050306434CEA010CD7
:1006300049084FEA300092185B4150EA0107EDD1BA
:1006400052EA030012D082EA040083EA050108435B
:1006500005D0101BAB4106D20122002306E0002288
:100660004FF0004302E06FF0010253101AEB060056
:100670004CEB085110EB0A0041EB0B01BDE8F04DCB
:1006800000F042B9C10F80EAE0700844CA0796231F
:10069000002100F00BB996230022114600F006B9A4
:1006A0000EB5C10F80EAE0700844CA07002140F28D
:1006B00033438DE80E000A460B4600F034F903B0D0
:1006C00000BD0EB540F2334102910021CDE9001189
:1006D0000A460B4600F027F903B000BD00F00042C7
:1006E00020F00040C10DC0F3160040F400007F2947
:1006F00001DA00207047962903DCC1F19601C84059
:1007000001E096398840002AF4D04042704770B525
:10071000C1F30A5201F000450024C1F3130140F275
:10072000FF3341F480119A4201DA002070BD40F29B
:1007300033439A42A2F2334203DC524200F08BF878
:1007400000E090402C43F1D0404270BD00F00042E8
:1007500030F000400AD0C10D01F56071C0F3160001
:1007600042EA0151C2084007114370470020014688
:10077000704701F0004330B421F0004150EA01021B
:1007800006D00A0DA2F56072C1F31301002A02DC43
:1007900030BC00207047440F44EAC104C100E01897
:1007A00030BC00EBC25000F078B830B50B460146C3
:1007B00000202022012409E021FA02F59D4205D300
:1007C00003FA02F5491B04FA02F52844151EA2F1AA
:1007D0000102F1DC30BD2DE9F05F054600209246B4
:1007E0009B4688460646814640241BE028464146F3
:1007F0004746224600F02FF853465A46C01A914108
:1008000010D311461846224600F016F82D1A67EB51
:1008100001084F4622460120002100F00DF817EB99
:1008200000094E41201EA4F10104DFDC4846314698
:100830002A464346BDE8F09F202A04DB203A00FA0E
:1008400002F1002070479140C2F1200320FA03F327
:10085000194390407047202A04DB203A21FA02F025
:100860000021704721FA02F3D040C2F120029140EA
:10087000084319467047202A06DBCB17203A41FA75
:1008800002F043EAE07306E041FA02F3D040C2F11D
:10089000200291400843194670470029A8BF7047BD
:1008A000401C490008BF20F00100704710B4B0FAA6
:1008B00080FC00FA0CF050EA010404BF10BC704741
:1008C00049B1CCF1200421FA04F411FA0CF118BF5B
:1008D000012121430843A3EB0C01CB1D4FEA00612A
:1008E0004FEA102042BF002010BC704700EBC350FD
:1008F00010440029A4BF10BC7047401C490008BF29
:1009000020F0010010BC704710B5141E73F10004F4
:1009100008DA401C41F1000192185B411A4301D1F1
:1009200020F0010010BD2DE9F04D92469B4611B11B
:10093000B1FA81F202E0B0FA80F220329046FFF77D
:100940007BFF04460F4640EA0A0041EA0B0153468A
:100950005A46084313D0114653EA010019D0C8F192
:1009600040025046FFF777FF05460E46504659466F
:100970004246FFF761FF084305D0012004E020460E
:100980003946BDE8F08D0020054346EAE0762C4369
:1009900037430A986305E40AA0EB08000022FD0A29
:1009A00044EA47540A3002D500200146E9E7010530
:1009B00010196941DDE9084500196941BDE8F04DAC
:1009C000A2E7C1F30A52C1F3130140F2FF3341F42D
:1009D00080119A4202DA00200146704740F2334308
:1009E0009A42A2F2334202DC5242FFF734BFFFF7D1
:1009F00023BF000030B5041E71F1000404DB4FF08A
:100A00000044404264EB0101141E73F1000405DB55
:100A10001C464FF00043524263EB04038B4208BF75
:100A2000824230BD30B5041E71F1000404DB4FF08A
:100A30000044404264EB0101141E73F1000405DB25
:100A40001C464FF00043524263EB0403994208BF37
:100A5000904230BD064C074D06E0E06840F00103CF
:100A600094E8070098471034AC42F6D3FFF742FBF6
:100A7000485E0008685E000870B521F0004303433B
:100A80000CD0C1F30A550024D5EB040564EB040334
:100A9000D617AD1AB34102DB0020014670BD201805
:100AA00041EB025170BD70B58C1810F8015B15F068
:100AB000070301D110F8013B2A1106D110F8012BD0
:100AC00003E010F8016B01F8016B5B1EF9D12B07F5
:100AD00005D40023521E0DD401F8013BFAE710F8AB
:100AE000013BCB1A921C03E013F8015B01F8015B98
:100AF000521EF9D5A142D8D3002070BD2DE9F8438C
:100B000013480068009013480368134802681348AC
:100B100001681348006800F065FA0446114803684C
:100B2000114802681148B0F900101148B0F90000EE
:100B300000F088FA05460026601987196019A0EBB5
:100B400006084146384601F02DFABDE8F88300005A
:100B500084000020800000207C0000207400002021
:100B6000940000208C0000208800002072000020EB
:100B7000700000202DE9FC5F2F4A3049304800F01A
:100B800071FE304A3049314800F08EFE2A48B0F9F3
:100B90000000FFF785FD06460F462948B0F9000022
:100BA000FFF77EFD804632463B4602F09DF9044643
:100BB0000022274BFFF785FC8246264A264BFFF78B
:100BC000F2FCCDE90001FFF7D4FD244908601E487E
:100BD000B0F900004042FFF763FD06464FF0663271
:100BE0001F4BFFF7E0FC0446FFF7C3FD1D490860FB
:100BF0001448B0F90000FFF753FD06464FF0663287
:100C0000174BFFF7D0FC0446FFF7B3FD1649086009
:100C1000144801681148006800F0A8F8022001F0AB
:100C2000EFF900B211490880032001F0E9F900B2A0
:100C30000F490880BDE8FC9F9C0000209A0000201E
:100C400098000020A2000020A00000209E000020AC
:100C5000008066404AD8124DFB21094094000020D4
:100C6000666630407400002078000020700000208C
:100C70007200002010B500F0A3FD00F04FFA00F064
:100C80005DFF01F011F900F031FE01F0B3F910BD84
:100C900038B5284801780078401C264A107014297D
:100CA00014D100201146087000F0BAFA224A03C29B
:100CB000214822A10CC8234801F01CFB012010236D
:100CC000204A00210090202001F0AAF81E48B0F927
:100CD00000201EA11E4801F00DFB1E48B0F90020A7
:100CE0001AA11D4801F006FB01201023184A1946DD
:100CF0000090182001F094F801201023164A2021BA
:100D00000090182001F08CF814480068FFF71EFDD1
:100D1000044622460B4612A1134801F0EBFA0120CB
:100D20001023114A30210090084601F079F800F0B4
:100D3000B3FF38BDC8000020C000002025332E318D
:100D400066000000B8000020700000202536640016
:100D5000A400002072000020AB000020D000002082
:100D600025342E3166000000B20000202DE9F0414C
:100D700005460C46894801682046FFF785FA074674
:100D8000874801683846FFF785FA064685480168B6
:100D90003046FFF727FA8349086083484168834853
:100DA0000068FFF771FA06467F4881683046FFF712
:100DB0006BFA7F4908607C48C06880F0004048605A
:100DC0007948C06880F0004088607A480068C86050
:100DD000086873490968FFF75DFA064672480168BA
:100DE0003046FFF7FFF970490860714948686C495F
:100DF0000968FFF74FFA06466B4841683046FFF72F
:100E0000F1F9694948606A49886865490968FFF7E6
:100E100041FA0646644881683046FFF7E3F96249C3
:100E200088606349C8685E490968FFF733FA064677
:100E30005D48C1683046FFF7D5F95B49C86059483D
:100E400001682846FFF720FA5B4908605B48007894
:100E5000FFF721FC0646544801683046FFF71AFAAE
:100E60005749086055480078FFF715FC06464E487C
:100E700081683046FFF70EFA524908604F48007803
:100E8000FFF709FC07464E4801683846FFF702FAAB
:100E900006464D4801683046FFF7A4F94B49086003
:100EA0000846016846480068FFF726FA4849086086
:100EB0004648016843480068FFF71EFA4549086044
:100EC0003F480068444908603C480078FFF7E3FB6E
:100ED0000646354841683046FFF7DCF93F4908606F
:100EE0003D4801683A480068FFF7D4F906462E48A5
:100EF00001683046FFF7CBF92B4908603748016895
:100F000033480068FFF7C6F906462748416830466F
:100F1000FFF7BDF9244948602F4801682D48006853
:100F2000FFF7B8F90646204881683046FFF7AFF969
:100F30001D4988602948016826480068FFF7AAF91A
:100F400006461948C1683046FFF7A1F91649C8603E
:100F5000194801681E480068FFF79CF906461148C9
:100F600001683046FFF73EF90E49086012480168F3
:100F700018480068FFF78EF90646084801683046B1
:100F8000FFF730F905490860084601682046FFF779
:100F90007BF913490860BDE8F0810000EC000020F7
:100FA000E4000020D000002010010020D800002024
:100FB00094440020DC000020F0000020E800002025
:100FC000F4000020F8000020E0000020FC000020D9
:100FD0000001002004010020080100200C01002075
:100FE000D40000202DE9F84F81460C4615461E46D8
:100FF000DDF828A029464846FFF746F9009020462C
:10100000FFF7A4FB07463A460B460AA001F062F937
:1010100021465046FFF73EF9804630460099FFF7DB
:1010200039F983464146FFF7DDF80746FFF756FBDF
:10103000BDE8F88F6779726F593D252E31660D0A2C
:10104000000000002DE9F04F87B005460E4691469E
:101050009A460024AC192B48006808B92948046056
:101060002046FFF71DFB0746274A284BFFF729FAC2
:10107000CDE9020123480068FFF712FB0746224A28
:10108000234BFFF71EFACDE90001DDE90223FFF74C
:1010900071F9CDE90401FFF73AFB044619480460F1
:1010A0001C48006820441B4908600846006842F25A
:1010B0001071884203DD08461649086007E01548AC
:1010C00000681549884202DA08461249086011484A
:1010D0000068FFF7D7FA51460590FFF7DBF8804626
:1010E0002046FFF7CFFA49460590FFF7D3F883462D
:1010F0004146FFF777F80746FFF7F0FA07B0BDE87B
:10110000F08F0000200100209A9999999999C93F80
:101110009999E93F24010020F0D8FFFF3D488069FC
:1011200040F400703B4988610846406840F4004044
:1011300048600846406820F480404860084680695E
:1011400040F0040088613448006820F0F000324923
:1011500008603248006820F4807030490860081D3B
:10116000006820F00200091D08600846006820F4AD
:1011700000600860081D006840F00700091D086055
:1011800026482830006820F470002449283108607F
:1011900022483030006820F01F00204930310860BC
:1011A0000846006840F0010008601C48001D006807
:1011B00040F480101949091D08600846006840F491
:1011C000602008600846006840F00100086008469A
:1011D000006840F00400086000BF1048001D00686F
:1011E00000F004000028F8D10C48001D006840F011
:1011F00001000A49091D08600846006840F48000A3
:10120000086000BF0548001F006800F002000028C9
:10121000F8D070470010024000080140042401404B
:101220002DE9F0471448006840F0010012490860B9
:101230000846006840F48000086000BF0E48083887
:10124000006800F002000028F8D00B49443108681B
:10125000FFF737FA06464FF06632084BFFF731F9D1
:1012600004460022064BFFF79EF980460022054BFC
:10127000FFF727F9BDE8F0870824014066660A40B9
:1012800000FEAF40000010400348008840F480603A
:101290000149088070470000005800401B48C069A1
:1012A00040F480001949C8610846806940F0080090
:1012B00088611748006840F47F4015490860154868
:1012C000008820F0020013490880081D008840F0C3
:1012D0002400091D08800F481C30008820F40040BD
:1012E0000C491C3108800846008840F0B400088092
:1012F000081D008840F02500091D08800548008869
:1013000040F00100034908807047000000100240CF
:10131000040C0140005800400348008820F480601D
:101320000149088070470000005800404FF6FF71E7
:1013300001E0481E81B20748008800F0400008B96B
:101340000029F6D119B10348001F008800E00020F1
:10135000C0B270471458004002460B4802804FF656
:10136000FF7101E0481E81B20748001D008800F0AF
:10137000020008B90029F5D121B1034808300088DE
:10138000012070470020FCE7105800400B480088FF
:1013900040F48070094A10804FF6FF7101E0481E4A
:1013A00081B206481430008800F0010008B9002915
:1013B000F5D109B1012070470020FCE7005800403A
:1013C0000348008840F4007001490880704700001D
:1013D0000058004002464FF6FF7101E0481E81B2FE
:1013E0000E48008800F0800008B90029F6D109B93C
:1013F000002070470948001F02804FF6FF7101E08E
:10140000481E81B20548008800F0040008B9002990
:10141000F6D109B10120ECE70020EAE714580040BA
:101420000D48806940F004000B4988610B48006852
:101430000B49084309490860084600680949084003
:101440000649086005480C30006840F01000034968
:101450000C31086070470000001002400008014095
:1014600000003330FFFF333F1749096821F01001B6
:10147000154A116000211EE0134A126822F0200272
:10148000114B1A6000F080022AB11A46126842F02D
:1014900080021A6005E00C4A126822F080020A4BB2
:1014A0001A60094A126842F02002074B1A6042068D
:1014B000100E4A1CD1B20829DEDB0349096841F04D
:1014C0001001014A116070470C0801403448C0699E
:1014D00040F001003249C8610846806940F00100CF
:1014E00088610846806940F00C0088612D4840689A
:1014F00020F0E0602B4948600846406840F00070EA
:1015000048600846406840F44070486026480068DB
:1015100020F44050244908600846006820F4004048
:1015200008600846006840F4804008601F48006872
:1015300020F040501D4908600846006820F0004037
:1015400008600846006840F08040086000200907F5
:1015500008854FF6FF7088850846008B40F0010033
:1015600008830846008B40F4807008830846008C8E
:1015700020F0020008840846008C20F02000088437
:101580000846008940F0070008810846008920F0DD
:10159000040008810846008840F001000880704778
:1015A0000010024000000140000C0140040801400E
:1015B0003A48C06940F002003849C861084680696D
:1015C00040F0010088610846806940F008008861A9
:1015D0003348406820F0E060314948600846406880
:1015E00040F0007048600846406840F40060486081
:1015F0002C48006820F440302A49086008460068FA
:1016000020F4002008600846006840F4802008604C
:101610000846006820F4401008600846006820F47E
:10162000000008600846006840F480000860002060
:101630001D4908804FF6FF70091D08801A481038B0
:10164000008840F0020018491039088008460088D8
:1016500040F40070088014480838008820F0020028
:101660001149083908800846008840F020000880A9
:101670000D482038008840F007000B4920390880C9
:101680000846008820F004000880074828380088B1
:1016900040F00100044928390880704700100240DA
:1016A00000000140000C0140280400404148C0698E
:1016B00040F004003F49C8610846806940F00800D6
:1016C00088613D48006840F00B003B4908600846CF
:1016D000006820F0040008600846006840F0B00090
:1016E00008600846006820F0400008600020334988
:1016F000088041F61F40091D0880304828380088BE
:1017000020F010002D492839088000202B49143181
:1017100008802A480C38008820F0030027490C393B
:1017200008800846008840F040000880084600888D
:1017300040F0200008800846008820F01000088053
:10174000081D008840F48070091D08800846008844
:1017500020F40070088000201849183108801748CC
:101760000C38008820F4407014490C390880084671
:10177000008840F4804008800846008840F400500B
:1017800008800846008820F480500880081D0088E2
:1017900040F48050091D08800846008820F400505D
:1017A000088006482838008840F00100034928399D
:1017B0000880704700100240040C014028080040D7
:1017C0001248806940F48040104988610846806969
:1017D00040F0040088610E48006840F0B0000C49F9
:1017E00008600846006840F04000086040F2712040
:1017F00008490880081D008840F00C00091D088079
:101800000846008840F400500880704700100240ED
:10181000040801400838014000BF0549098801F06B
:1018200080010029F9D00249091D08807047000095
:10183000003801401CB50648012100230A02CDE909
:10184000001004A1064802F007F902F063F81CBD7D
:101850006000002073746172745F7461736B0000C8
:10186000212100087CB504460D461646062269462D
:101870003B2000F08AF89DF801009DF8001040EA36
:10188000012000B220809DF803009DF8021040EA7C
:10189000012000B228809DF805009DF8041040EA60
:1018A000012000B230807CBD7CB504460D46164652
:1018B00006226946432000F068F89DF801009DF873
:1018C000001040EA012000B220809DF803009DF83E
:1018D000021040EA012000B228809DF805009DF822
:1018E000041040EA012000B230807CBD08B5002021
:1018F0000090FFF7D3FC80216B2000F06EF864208D
:1019000001F0C0FB00216B2000F067F8032000F01D
:101910007EF8002000F073F80021382000F05DF818
:101920000021232000F059F800216A2000F055F82A
:101930006946752000F010F89DF8000068280AD16B
:1019400001216B2000F049F8642000F085F80021A7
:101950006C2000F042F808BD70B505460C46FFF754
:1019600015FDD020FFF7F8FC2846FFF733FDFFF701
:101970000DFDD120FFF7F0FCFFF7CEFCFFF720FDB7
:10198000FFF7D4FC2070002070BD2DE9F041074620
:101990000E461546FFF7FAFCD020FFF7DDFC38466F
:1019A000FFF718FDFFF7F2FCD120FFF7D5FC00246C
:1019B0000EE0681EA04204D1FFF7AEFCFFF700FD69
:1019C00001E0FFF761FCFFF7B1FC3055601CC4B2C9
:1019D000AC42EEDB0020BDE8F08170B505460C4658
:1019E000FFF7D4FCD020FFF7B7FC2846FFF7F2FC46
:1019F0002046FFF7EFFCFFF7E3FC002070BD10B5B9
:101A00000446E006010E1C20FFF7E7FF10BD10B5ED
:101A10000446E006010E1B20FFF7DFFF10BD70B586
:101A200004460025BC2C01DB012510E0622C01DB03
:101A300002250CE02A2C01DB032508E0142C01DB35
:101A4000042504E00A2C01DB052500E006252946D3
:101A50001A20FFF7C2FF70BD70B504460025B4F52B
:101A60007A7F02DD4FF47A7402E0042C00DA042459
:101A70004FF47A7090FBF4F0401EC5B2294619204D
:101A8000FFF7ABFF264604EBD671C1F34F00FFF71B
:101A9000C6FF70BD10B500200CE0002106E000225A
:101AA000074B03EBC1031A544A1CD1B28029F6DB61
:101AB000411CC8B20828F0DB00F0EEF810BD0000B1
:101AC00014400020F0B514460B46CF1701EB5777B2
:101AD000C7F3C702CF1701EB5777FF10A1EBC7077A
:101AE000FEB20123B340DDB24CB1134B03EBC00394
:101AF0009B5C2B43104F07EBC007BB541AE00E4B07
:101B000003EBC0039B5CDB430B4F07EBC007BB54ED
:101B1000094B03EBC0039B5C2B43074F07EBC0074C
:101B2000BB54054B03EBC0039B5CDB43024F07EB4D
:101B3000C007BB54F0BD00001440002010B5534C4A
:101B4000FFF76EFC5248806940F0080050498861F8
:101B50005048006840F033004E490860084600686D
:101B600020F0CC0008604B480C30006840F00200C8
:101B700048490C3108600846006840F001000860E0
:101B80000846006820F00100086000BF201EA4F194
:101B90000104FBD13F480C30006840F001003D4992
:101BA0000C3108600021AE2000F060F900210846E9
:101BB00000F05CF90021102000F058F900214020CD
:101BC00000F054F90021812000F050F90021CF20CD
:101BD00000F04CF90021A12000F048F90021C820B4
:101BE00000F044F90021A62000F040F90021A820CF
:101BF00000F03CF900213F2000F038F90021D3200B
:101C000000F034F90021084600F030F90021D52019
:101C100000F02CF90021802000F028F90021D920C3
:101C200000F024F90021F12000F020F90021DA2051
:101C300000F01CF90021122000F018F90021DB202F
:101C400000F014F90021402000F010F900212020BC
:101C500000F00CF90021022000F008F900218D208D
:101C600000F004F90021142000F000F90021A42064
:101C700000F0FCF80021A62000F0F8F8FFF70AFFBA
:101C80000021AF2000F0F2F810BD000000BADB0028
:101C900000100240000C014070B500241CE004F16B
:101CA000B001C8B2002100F0E1F80021084600F0C0
:101CB000DDF80021102000F0D9F8002508E00849DF
:101CC00001EBC501085D012100F0D0F8681CC5B228
:101CD000802DF4DB601CC4B2082CE0DB70BD00007A
:101CE000144000202DE9FE4F0746884692461C46C8
:101CF0000197CDF80080082C02D14FF006091FE0B3
:101D00002046E31704EB5373DB1021464FEAE47CD3
:101D100004EB5C7C4FEAEC0CA4EBCC0CBCF1000FA8
:101D200002D04FF0010C01E04FF0000C634422465A
:101D300004EBD27C4FEA6C0C03FB0CF303F0FF09BD
:101D4000AAF12000C6B200255EE0082C07D106EB00
:101D500046002F4901EB400010F805B01DE00C2CA7
:101D600007D106EB46002B4901EB800010F805B0C7
:101D700013E0102C05D1284800EB061010F805B030
:101D80000BE0182C07D106EBC600244901EB8000BC
:101D900010F805B001E0BDE8FE8F002002901CE0C5
:101DA0000BF0010028B1414638460C9AFFF78AFE35
:101DB00009E00C9808B9012000E0002002464146E5
:101DC0003846FFF77FFE4FEA6B0B08F1010000F089
:101DD000FF080298401CC0B2029002980828DFDB7E
:101DE000781CC7B2082C0BD004EBD4714A100199AF
:101DF000791A8A4204D1019F00980830C0B200903D
:101E0000DDF80080681CC5B24D459EDB00BFC2E70F
:101E1000983F0008C041000834460008244C0008E0
:101E20002DE9F84106460F4614461D46DDF81C8094
:101E300013E0CDF8008022782B4639463046FFF774
:101E400051FF082D02D1B01DC6B205E0284605EBB2
:101E5000D07106EB6101CEB2641C2078202802DB31
:101E600020787E28E5DDBDE8F881000070B50546E4
:101E70000C4634B10B48006840F002000949086084
:101E800005E00848006820F002000649086028467E
:101E9000FFF7EAFA0348006840F0020001490860D1
:101EA00070BD00000C0C014010B5FFF7FFFB0948A6
:101EB000806940F0080007498861074800680749C1
:101EC000084305490860084600680549084002497A
:101ED000086010BD00100240040C014000003333C4
:101EE000FFFF333320B101280ED0022824D117E0A0
:101EF0001349096821F48041114A116011460968AB
:101F000041F40041116018E00D49096841F4804135
:101F10000B4A11601146096821F4004111600CE080
:101F20000749096841F48041054A11601146096872
:101F300041F40041116000E000BF00BF70470000A5
:101F40000C0C014020B101280ED0022824D117E04A
:101F50001349096821F40051114A116011460968BA
:101F600041F48051116018E00D49096841F40051B5
:101F70000B4A11601146096821F4805111600CE090
:101F80000749096841F40051054A11601146096882
:101F900041F48051116000E000BF00BF70470000B5
:101FA0000C0C014010B503460C46002B03DA01204F
:101FB000FFF798FF02E00020FFF794FF181E01DBF7
:101FC000014600E041420A4A1180002C03DA012058
:101FD000FFF7B8FF02E00020FFF7B4FF201E01DB8F
:101FE000014600E04142024A121F118010BD00006C
:101FF0004008004010B5FFF769FAFFF7D9FA10BDA5
:1020000001460020022902D0032910D108E04FF038
:102010008042928C10B200224FF080439A8407E0F5
:10202000044A128810B20022024B1A8000E000BF5E
:1020300000BF70472404004010B500F001F810BD47
:102040000CB50020019000903348006840F48030C7
:102050003149086000BF3048006800F4003000904B
:102060000198401C0190009818B90198B0F5A06F34
:10207000F1D12948006800F4003010B1012000902F
:1020800001E0002000900098012843D12348006817
:1020900040F01000214908600846006820F0070061
:1020A00008600846006840F0020008601A4840686E
:1020B000194948600846406848600846406840F44E
:1020C000806048600846406820F47C1048600846FC
:1020D000406840F4E81048600846006840F08070AE
:1020E000086000BF0C48006800F000700028F9D0BC
:1020F0000948406820F003000749486008464068E6
:1021000040F00200486000BF0348406800F00C0047
:102110000828F9D10CBD0000001002400020024048
:102120001CB5044601F038FB124802210023CA0105
:10213000CDE9001010A1124801F08EFC11480321D6
:1021400000234FF48072CDE900100FA1104801F078
:1021500083FC1048042100238A01CDE900100EA160
:102160000F4801F079FC002001F06AFB01F026FB2A
:102170001CBD0000640000207461736B310000001E
:1021800015220008680000207461736B32000000A3
:10219000652200086C0000207461736B330000003E
:1021A000A122000810B501F06BFD012801D001F05B
:1021B00039FC10BD10B51348006840F0010011490A
:1021C000086008464068104908400E4948600846C3
:1021D00000680E4908400B4908600846006820F472
:1021E000802008600846406820F4FE0048604FF4F4
:1021F0001F008860FFF720FF4FF00060044908606F
:1022000010BD0000001002400000FFF8FFFFF6FEC6
:1022100008ED00E01CB501F043FD019013E0FEF76E
:10222000A9FC0020022302460146009006480068EF
:1022300001F080FC00BF0A2101A801F041FC00BFB1
:1022400002A000F047F8EAE76C0000207461736BAD
:10225000312069732072756E6E696E672E2E2E0D99
:102260000A00000008B501F01BFD00900AE0FEF72F
:102270000FFD00BF3221684601F022FC00BF02A022
:1022800000F028F8F3E700007461736B3220697383
:102290002072756E6E696E672E2E2E0D0A0000007C
:1022A0000AE04FF0FF320121002001F0E7F9FEF7CC
:1022B00025FC02A000F00EF8F3E700007461736BD8
:1022C000332069732072756E6E696E672E2E2E0D27
:1022D0000A0000000FB4054B10B503A9044A029888
:1022E00000F06AF910BC5DF814FB0000A130000892
:1022F000280100200FB4084B10B504A902AA0398C6
:1023000000F05AF9044602A9002000F0D8FC20464B
:1023100010BC5DF814FB0000BF2C0008490050EA17
:10232000C12018BF04204A0D18BF40F0010040F240
:10233000FF72B2EB515F08BF40F00200012808BFF6
:10234000052070472DE9F0414F1E00EBC701044600
:10235000D1E9000115461E4637F006020DD02A4687
:102360003346FEF7AEF87F1E04EBC703D3E9002324
:10237000FEF700F837F00602F1D1022F25D0042F26
:1023800013D0062F18BFBDE8F0812A463346FEF76A
:1023900098F8D4E90A23FDF7EDFF2A463346FEF705
:1023A00090F8D4E90823FDF7E5FF2A463346FEF707
:1023B00088F8D4E90623FDF7DDFF2A463346FEF709
:1023C00080F8D4E90423FDF7D5FF2A463346FEF70B
:1023D00078F8D4E90223FDF7CDFF2A463346FEF70D
:1023E00070F8D4E90023BDE8F041FDF7C3BF012236
:1023F000FEF742BBFDF7BEBF024A00201107FEF701
:102400003BBB000001FDFFFF02E008C8121F08C12E
:10241000002AFAD170477047002001E001C1121F65
:10242000002AFBD170470000014908607047000096
:102430002C0100202DE9FF5F82B00021DDE904308E
:10244000020DDDF840B0034318D044F61050A2F25C
:10245000FF3242431514119801281FD0A5EB0B0041
:10246000401C5FEA000A4FF000064E4FDFF838913B
:10247000B046504615D5CAF1000413E01198012466
:102480004AA3012801D16FEA0B010298119AC0E911
:102490000031C0E9024206B0BDE8F09FCBF1000078
:1024A000DFE704460021404A491842EB0450CDE9D9
:1024B000001012E0E00707D032463B46404649464E
:1024C000FDF7FFFF8046894632463B4610461946D7
:1024D000FDF7F7FF06460F466410002CEAD1DDE950
:1024E0000401DDE90023BAF1000F06DAFDF7E9FF88
:1024F00042464B46FDF7E5FF05E0FEF754F842463D
:102500004B46FEF750F804460E460022284BFEF7D5
:1025100089FA03D84FF0FF30014607E00022254B2F
:1025200020463146FDF726FFFEF74BFA102409E05E
:10253000002C0ADB0A220023FEF74DF9039B303200
:102540001A55641E50EA0102F2D1641C039AC4F1C8
:1025500011031444119A012A03D0012208430DD11A
:102560000AE0084304D000204FF0110B119072E7ED
:10257000A3EB0B056D1E0DE05B4504DD4FF0000283
:1025800005F1010504E003DA4FF00002A5F10105B1
:10259000002AECD002981199C0E90231C0E9004547
:1025A00079E70000000014400000F03F3000000018
:1025B0000000F0430000E03F2DE9FF4F95B09A4640
:1025C000884606460025EEE1252877D100242746D7
:1025D000F94A0121039400E0044316F8013F203B2F
:1025E00001FA03F01042F7D130782A2811D06FF0A9
:1025F0002F033078A0F13002092A16D8039A44F04C
:10260000020402EB820203EB42021044761C0390A8
:10261000EFE758F8042B0392002A03DA504244F4FF
:102620000054039044F00204761C30782E2816D112
:1026300016F8010F44F004042A280DD06FF02F0281
:102640003078A0F13003092B09D807EB870302EBA0
:102650004303C718761CF3E758F8047B761C3078E0
:102660006C280FD006DC4C2817D068280DD06A28BB
:1026700014D104E0742810D07A280FD10DE044F46E
:1026800000140AE044F4801401E044F44014727829
:10269000824202D104F58014761C761C30786628BC
:1026A0000BD013DC582877D009DC002875D04528DA
:1026B000F6D04628F4D047281AD193E118E06328D1
:1026C00035D0642879D0652812D18BE1702873D079
:1026D00008DC6728F1D069286FD06E280DD06F28EC
:1026E00006D1ACE073282CD0752874D0782853D04C
:1026F0005246179990476D1C54E1C4F302500228CA
:1027000009D003280DD0D8F8001004280DD00D6092
:1027100008F1040846E1D8F80010EA17C1E90052B0
:10272000F6E7D8F800100D80F2E70D70F0E718F822
:10273000041B8DF8001000208DF80100EB460120ED
:1027400003E058F804BB4FF0FF3061074FF0000181
:1027500002D40DE009F101018946B9420FDA814541
:10276000F8DB1BF809100029F4D108E009F1010198
:1027700089468142FADB1BF809100029F6D103983B
:102780005346A0EB090721463846179A00F080FA15
:10279000284400EB090507E044E008E10DE01BF8E0
:1027A000010B524617999047B9F10109F7D25346E8
:1027B00021463846179AF2E039E00A21C4F3025262
:1027C0004FF0000B0091022A06D058F8040BC117F5
:1027D000032A09D00AE023E008F1070020F00702ED
:1027E000F2E80201904605E000B2C117042A01D1C7
:1027F00040B2C117002906DA0A460021404261EBC7
:1028000002012D2202E0220504D52B228DF804209E
:10281000012203E0E20701D02022F7E7914657E0CA
:102820000A2100E010214FF0000B00910BE0102175
:102830004FF0000B44F004040827009103E0082047
:102840004FF0000B0090C4F30252022A05D058F852
:10285000040B0021032A08D008E008F1070020F04B
:102860000702F2E80201904603E080B2042A00D198
:10287000C0B24FF0000922072AD53278702A07D05B
:10288000DDF800C08CF0100C5CEA0B0C05D00EE0FB
:1028900040228DF80420012208E050EA010306D00E
:1028A00030238DF804308DF8052002229146009BDC
:1028B00083F0080353EA0B030AD150EA010201D165
:1028C000620705D530228DF804204FF001097F1EE4
:1028D0003278582A04D039A20C920CAA02920BE04A
:1028E0003BA2F9E75B46009AFDF775FF0C9B9B5CEA
:1028F000029A521E0292137050EA0102F2D102981B
:1029000004A9081A00F1200B600702D524F48034D2
:1029100000E001275F4502DDA7EB0B0000E000208F
:1029200000EB0B01009003984944401A0390E00328
:1029300006D453462146179A039800F0A9F9054496
:10294000002706E001A85246C05D179990476D1C0C
:102950007F1C4F45F6DBE0030CD553462146179A02
:10296000039800F095F9054404E030205246179989
:1029700090476D1C0099481E00900029F5DC08E086
:102980000298029952460078491C02911799904783
:102990006D1CBBF10001ABF1010BF1DC5BE100F060
:1029A00065F90544761C307800287FF40DAE19B027
:1029B0002846BDE8F08F000009280100303132338D
:1029C000343536373839616263646566000000006B
:1029D0003031323334353637383941424344454655
:1029E00000000000600700D4062708F1070020F06F
:1029F0000700F0E80223804603F0004C5FEA0C0079
:102A000001D097A009E0200501D596A005E0E007D8
:102A100001D095A001E0AFF24C001390307823F084
:102A2000004365280CD006DC452809D046281DD077
:102A300047287FD13BE0662818D067287AD136E056
:102A40000021112F01DB112000E0781CCDE90001ED
:102A500004A90CA8FFF7EEFCDDE90D010C9A4FF07C
:102A6000000B07F10109109200914EE04FF0004079
:102A70000097CDE9011004A90CA8FFF7DBFCDDE904
:102A80000D020C9B0F994FF0000B91461093009292
:102A900011B9791C00EB0109B7EB090003D4C0F1AF
:102AA000FF3B07F10109A9EB0700019042E0012F6C
:102AB00000DA01270021112F01DD112000E0384646
:102AC000CDE9000104A90CA8FFF7B4FCDDE90D0174
:102AD0000C9A00914FF0000BB946109221070FD4C9
:102AE000009A4A4503DA914601E0A9F10109B9F1DA
:102AF000010F05DD109AA9F10101515C3029F4D0D4
:102B0000B84202DA10F1040F03DA0121CDE9011015
:102B100010E0002803DC8344A9EB000102E0411C23
:102B2000494500DD8946A0EB0B00401C01904FF0A9
:102B300000400290200705D40198484502DB4FF081
:102B4000FF30019000208DF84B0002980DF14B07EB
:102B5000B0F1004F25D002200C902B200D90029850
:102B600000280CDA404202902D200D9007E00A2147
:102B70000298FDF71AFE3031029007F8011D0C99FA
:102B8000481E0C900029F2DC02980028EFD1791E33
:102B90000D980870307800F0200040F0450007F8EC
:102BA000020D11A8C01BC01D02901398007800B13F
:102BB000012000EB0901019801EBE071029801444A
:102BC0000398401A401E0390E00306D45346214662
:102BD000179A039800F05CF805441398007818B130
:102BE0005246179990476D1CE00323D55346214662
:102BF000179A039800F04CF805441BE0BBF1000F56
:102C000007DB0098584504DD1098179910F80B0061
:102C100001E0179930205246904701980BF1010BC3
:102C2000401E05F10105019004D12E20524617994E
:102C300090476D1CB9F10001A9F10109DEDC05E046
:102C400017F8010B5246179990476D1C0299481EC0
:102C500002900029F4DC53462146179A03989EE619
:102C60002D0000002B000000200000002DE9F041A5
:102C7000044600251E461746880404D405E039465C
:102C80002020B0476D1C641EF9D52846BDE8F081B0
:102C90002DE9F041044600251E469046C80301D5A3
:102CA000302700E02027880404D505E04146384657
:102CB000B0476D1C641EF9D52846BDE8F0810A684E
:102CC000531C0B60107070472DE9F84F04460D46F9
:102CD00021F0004000917349814211DC7249884221
:102CE00001DC06D12CB120462946BDE8F84FFFF79C
:102CF0007EBB6E48002DCCBF6D496E49BDE8F88F94
:102D00006D49814211DD6D498142D8BF4FF0FF36D8
:102D10006DDD20462946FFF701FB042808BFFFF7B9
:102D20006BFB20462946BDE8F88F6549654F25F0C5
:102D30000045814233DD6449814219DD0026324677
:102D40004FF0804320462946FDF714FB80468A4613
:102D5000012220462946FDF78FFE00223B46FDF763
:102D6000AAFB42465346FDF71EFC04460D463EE0D4
:102D700001260022BA463B4620462946FDF7FAFACC
:102D800080460F460022534620462946FDF793FB16
:102D900042463B46FDF707FC04460D4627E04B49FB
:102DA00081421BDDDFF828A102260022534620467F
:102DB0002946FDF786FB00223B46FDF7DBFA8046FD
:102DC0000F460022534620462946FDF774FB424633
:102DD0003B46FDF7E8FB04460D4608E00326224685
:102DE0002B4600203B49FDF7DEFB04460D462246FC
:102DF0002B4610461946FDF764FB8B468246024679
:102E00000B46FDF75EFB07460246334888460B46F5
:102E100006217844FFF796FA52465B46FDF751FBD0
:102E200082462E488B463A46434605217844FFF7B2
:102E300089FA3A464346FDF744FB02460B46002E0C
:102E4000504659460CDAFDF795FA22462B46FDF717
:102E500038FB01B022462B46BDE8F04FFDF72EBBF4
:102E6000FDF788FA22462B46FDF72BFB1C4A7A44D5
:102E700002EBC603D3E90023FDF71DFB22462B46D8
:102E8000FDF719FB174A7A4402EBC603D3E9002386
:102E9000FDF714FB009A002AB8BF81F00041BDE89D
:102EA000F88F0000000010440000F07F182D4454FB
:102EB000FB21F93FFB21F9BF0000DC3F0000203E71
:102EC0000000F33F0000F03F0000E63F00800340B9
:102ED0000000F83F0000F0BFFA2F0000B82F0000FC
:102EE000562F00001E2F00002DE9F04D9446CCF126
:102EF000000423F000464CEA0404594F46EAD47417
:102F00009A46884621F00042BC4206D8454240EA33
:102F1000050442EAD474BC4204D9BDE8F04D6246CF
:102F2000FFF768BAAAF14055A5F17F6555EA0C0490
:102F30000BD0022404EAAA744A4DDFF82CE144EADB
:102F4000D87452EA000B04D00CE0BDE8F04DFFF756
:102F5000BBBE002C14BF012CBDE8F08D022C30D07C
:102F6000032C32D056EA0C0B0AD0BE4220D1BA4212
:102F700009D126F0804622F080423346114617E000
:102F800000291ADB25E0DFF8E4B0FB44002C04BF85
:102F9000DBE90001BDE8F08D012C02BFDBE9000197
:102FA00081F00041BDE8F08D022C0AD0032C0CD03A
:102FB000BA4212D1B8F1000F0BDA2A482C49BDE809
:102FC000F08D28462B49BDE8F08D28467146BDE8B6
:102FD000F08D24482849BDE8F08D921B12153C2A3B
:102FE000C4BF204F244E10DCBAF1000FBEBF12F157
:102FF0003C0F00273E4608DB6246FDF7D4FA21F07D
:103000000041FFF761FE07460E4694B1012C08BF50
:1030100086F000460DD0194A194B022C384631462D
:1030200015D0FDF748FA2A46BDE8F04D114BFDF7E3
:1030300042BA0022134638463146FDF7DBFC04BF96
:103040000220FFF7F1F938463146BDE8F08DFDF773
:1030500032FA2A46BDE8F04D064BFDF72FBA0000C4
:103060000000F07F182D4454FB2109C0B22E00004F
:10307000FB21F9BFFB210940FB21F93F075C143319
:1030800026A6A13C054A42430923B2FBF3F100BF47
:1030900000BF0A1EA1F10101FAD1704740190100D9
:1030A00000B502460B46D0B2FEF7B6FB104600BD97
:1030B00008B5FDF7DFFD15A0FFF70CF9FEF7EAFCF8
:1030C0000120102319A2002100900846FEF7A8FE57
:1030D0000120102318A2194600900020FEF7A0FE40
:1030E0000120102315A2202100900020FEF798FE59
:1030F0000120102312A2302100900020FEF790FE44
:10310000FEF7CAFDFEF796FB00BFFEE762616C6149
:103110006E6365206361722070726F6A65637420EC
:10312000626567696E2E2E2E0D0A00004241543AE8
:10313000202020205600000045413A0045423A0038
:10314000416E676C653A00002DE9F04105460E4678
:103150002648076826480068001D00F0D3FA50B9D9
:103160002348006890F82C10012088402149096804
:10317000814320480160681CD8B9D6B11E4948680F
:103180001B49096888601A4982680968CA60184939
:103190000968091D8268516015490968091D816027
:1031A000154A134909684A6111460968491C1160AA
:1031B0001AE07C190E4800684460BC4207D20C48F3
:1031C0000168091D0D48006800F0C0FA0CE00848CD
:1031D0000168091D0A48006800F0B8FA094800684B
:1031E000844201D207480460BDE8F0811400002049
:1031F000000000201800002000040020080000202B
:10320000040000203000002010B5044600F0C4FA8D
:103210002F480068401C2E4908602E48006840B9BD
:103220002C4804600846006801280DD100F016F90A
:103230000AE02948006838B926480068C06AE16A8F
:10324000884201D82348046024480068401C234970
:10325000086094F82C10012088402149096808432F
:103260001F490860E16A01EB81011E4A02EB8101FE
:103270004868A0608268E260211D826851608160B8
:10328000E16A01EB8101174A02EB81026261E16AA6
:1032900001EB8101134A52F82110491CE26A02EB4A
:1032A0008202104B43F8221000F088FA0A480068A6
:1032B00068B108480068C06AE16A884207D24FF0E6
:1032C000805009490860BFF34F8FBFF36F8F10BD67
:1032D00010000020000000201C0000202C00002016
:1032E000180000203001002004ED00E010B516E0C9
:1032F00000F052FA0C48C068C468201D00F002FAC1
:103300000A480068401E0949086009480068401ED4
:103310000749086000F052FA204600F00BF8044814
:1033200000680028E4D110BDEC030020100000204C
:103330000C00002010B50446206B00F04FFA204628
:1033400000F04CFA10BD000030B54FF47053154832
:1033500000F007042CB1C01D20F00700114C041B25
:103360001B1B0246104C226000240F4D6C60D018CD
:10337000083820F007000D4C206000240B4D2D680C
:103380006C600A4D2D682C601146441A4C60074C45
:1033900024680C60064D4C682C60064D4C682C600F
:1033A00030BD000014040020400000204800002030
:1033B000500000204C00002000BFFFF797FF064898
:1033C00000680128F9D94FF0805004490860BFF324
:1033D0004F8FBFF36F8FF0E73001002004ED00E066
:1033E0002DE9FF5F80460E469146DDE90E7A109C7E
:1033F000A9F10100216B01EB800B2BF0070B7EB1D3
:10340000002507E0715D04F134004155705D00B99D
:1034100002E06D1C102DF5D300BF002143200155A3
:10342000202F00D31F27E762201D00F08CF904F144
:10343000180000F088F92461C7F12000A0616462DF
:1034400041465846039A00F007F92060BAF1000F90
:1034500001D0CAF80040BDE8FF9F000010B500246D
:1034600007E004EB84010F4A02EB810000F05EF9F3
:10347000641C202CF5D30C4800F058F90B4800F0E0
:1034800055F90B4800F052F90A4800F04FF90A4884
:1034900000F04CF9044809490860044808490860EC
:1034A00010BD000030010020B0030020C403002044
:1034B000D8030020EC0300200004002004000020BA
:1034C0000800002010B50146164800E000680368B7
:1034D0008B42FBD30246436813448B4204D14368BA
:1034E0004C682344436001460A464B681344046811
:1034F000A34211D10C4C03682468A34208D04B6846
:103500000468646823444B6003681B680B6005E033
:10351000054B1B680B6001E003680B60884200D01C
:10352000016010BD400000204800002009480068EC
:10353000006808B9012000E0002020B14FF0FF3002
:103540000549086005E003480068C0680068024952
:1035500008607047040000203000002000BF5020A9
:1035600080F31188BFF34F8FBFF36F8F00BF00BF91
:10357000FEE700002DE9F04705464FF0000900F096
:10358000FFF93048006808B9FFF7DEFE75B105F0B5
:103590000700C0F11008C8F1FF30A84201D2012095
:1035A00000E0002008B9454400E00025012000EBC0
:1035B000E570002841D0002D3FD0234800688542A7
:1035C0003BD8224E3046046801E0264624686068F5
:1035D000A84202D220680028F7D11A480068844225
:1035E0002BD0306800F10809206830606068401B0B
:1035F000102807D967196068401B786065603846F5
:10360000FFF760FF104960680968081A0E490860F2
:10361000084600680E490968884203D20A480068D3
:103620000B490860606840F0004060600020206046
:1036300008480068401C0749086000F0FFFB484646
:10364000BDE8F087480000204C000020400000202A
:103650005000002054000020001F4FF080730360D2
:10366000001F21F001030360001F034B03601438A7
:1036700002602038704700005D3500082DE9F041F8
:1036800004460F46164600F087F81C480068443090
:1036900050F8240080B901211848006848300155CD
:1036A00056B13046FFF750FD4FF080501449086086
:1036B000BFF34F8FBFF36F8F00F080F800F06CF80E
:1036C0000E480068443050F824506DB137B10021E5
:1036D0000A480068443040F8241005E0681E074995
:1036E0000968443141F8240000210448006848304A
:1036F000015500F063F82846BDE8F0810000002085
:1037000004ED00E001460A69D1E901309860D1E991
:10371000010358605068884201D1886850600020D9
:1037200008611068401E10601068704700F10801C1
:1037300041604FF0FF31816000F10801C16001611B
:1037400000210160704700210161704710B50246F9
:103750000B685C1C0CB9106907E002F1080000E07E
:103760004068446824689C42FAD944684C604C68BC
:10377000A160886041600A611468641C146010BD17
:1037800042684A6093688B609368596091600861F1
:1037900003685B1C0360704700BF502080F31188F2
:1037A000BFF34F8FBFF36F8F00BF03480068401C0B
:1037B00001490860704700005C000020064800686E
:1037C000401E054908600846006820B9002080F3C3
:1037D000118800BF00BF70475C00002070B506462E
:1037E0003546E6B1083D2C466068C00FB8B1206888
:1037F000A8B9606820F00040606000F0C1F8084996
:10380000606809680844064908602046FFF75AFEC8
:1038100004480068401C0349086000F00FFB70BDBD
:103820004C0000205800002000204FF0E0210861EB
:103830008861024848610720086170473F1901000C
:1038400070B50546FFF7A8FF15B92948006800E0E4
:1038500028460446201DFFF755FF78B9E06A00EBC3
:103860008000244951F8200040B994F82C10012020
:1038700088402149096881431F480160A06A18B146
:1038800004F11800FFF73EFF1C480068401C1B496C
:10389000086017480068844209D1211D1848FFF7C5
:1038A0006FFF18480068401C1649086006E016487B
:1038B0000068401E14490860FFF738FEFFF77EFFDE
:1038C0000B480068844202D02046FFF733FD0F48C2
:1038D000006858B106480068844207D14FF0805014
:1038E0000B490860BFF34F8FBFF36F8F70BD0000AF
:1038F0000000002030010020180000202C000020D3
:10390000EC0300200C000020100000201C00002010
:1039100004ED00E01CB5124800210B468022CDE9E1
:10392000001010A1114800F097F80446012C14D1A2
:1039300000BF502080F31188BFF34F8FBFF36F8F0C
:1039400000BF4FF0FF300A490860012009490860B4
:1039500000200949086000F04BF8084800681CBDC9
:103960003400002049444C4500000000B9330008F1
:10397000300000201C00002014000020380000202F
:1039800002480068401C0149086070473C00002064
:103990001248006818B10120114908601DE000209C
:1039A0000F4908600F480068B0FA80F0C0F11F01AD
:1039B00001EB81020C4B03EB8200426852684260CB
:1039C00000F108024368934202D1426852684260A3
:1039D0004268D268054B1A6000BF70473C00002067
:1039E00024000020180000203001002000000020EA
:1039F00010B50A48006840F470000849086008469D
:103A0000006840F070400860FFF70EFF0020044996
:103A10000860FCF789FB002010BD000020ED00E0ED
:103A20005C00002010B500BF502080F31188BFF368
:103A30004F8FBFF36F8F00BF00F038F918B14FF010
:103A400080500449086000BF002080F3118800BF47
:103A500010BD000004ED00E02DE9FF4F85B0804669
:103A600089461746DDE912ABB800FFF783FD06462D
:103A700076B14C20FFF77EFD04462CB14C21204648
:103A8000FCF7A5FB266304E03046FFF7A7FE00E045
:103A900000247CB10020CDE900ABCDE902403A46DC
:103AA00049464046089BFFF79BFC2046FFF7ACFBCE
:103AB000012501E04FF0FF35284609B0BDE8F08F41
:103AC0002DE9F047044688464FF00009FFF758FFFC
:103AD00016480668206800EB08052068B04207D940
:103AE0002068A8420BD9B54209D94FF0010906E078
:103AF0002068A84201D8B54201D94FF001092560DC
:103B0000B9F1000F03D0A81B0021FFF71DFB00F047
:103B100095F907463FB94FF0805005490860BFF35B
:103B20004F8FBFF36F8F4846BDE8F0871400002029
:103B300004ED00E02DE9F05F81460D4616461F4674
:103B4000DDF828A04FF0010B4C46FFF725FEBAF137
:103B5000000F05D004F1440050F82500CAF8000019
:103B600004F1480010F8058002214155052F29D2A3
:103B7000DFE807F027030D171C0004F1440050F89C
:103B80002500304304F1440141F825001BE004F115
:103B9000440050F82500401C04F1440141F8250080
:103BA00011E004F1440040F825600CE0B8F1020F88
:103BB00004D004F1440040F8256001E04FF0000B10
:103BC00001E000E000BF00BFB8F1010F4AD1606919
:103BD000D4E902128A60D4E902214A60211D4268B8
:103BE0008A4201D1E1684160002262610168491E98
:103BF000016094F82C10012088401D490968084391
:103C00001B490860E16A01EB81011A4A02EB81015C
:103C10004868A0608268E260211D8268516081600E
:103C2000E16A01EB8101134A02EB81026261E16A00
:103C300001EB81010F4A52F82110491CE26A02EBA4
:103C400082020C4B43F822100B49E06A0968C96AEA
:103C5000884207D94FF0805008490860BFF34F8F62
:103C6000BFF36F8FFFF7AAFD5846BDE8F09F000035
:103C700018000020300100200000002004ED00E0CA
:103C80000549096809B9012005E00449096809B92D
:103C9000022000E0002070471C0000203C000020B3
:103CA0000149086870470000140000202DE9F04128
:103CB00000275748006800287ED156480068451CF8
:103CC000544805608DB95448D0F8008053480068C6
:103CD000514908605148C0F8008051480068401CB4
:103CE0004F490860FFF722FC00BF4E48006885423C
:103CF00076D300BF48480068006808B9012000E09A
:103D0000002020B14FF0FF304649086067E042488C
:103D10000068C068C4686668B54202D2414806605F
:103D20005DE06069D4E902128A60D4E902214A6048
:103D3000211D42688A4201D1E1684160002262612E
:103D40000168491E0160A06A98B1A06AD4E907120F
:103D50008A60D4E907214A6004F1180142688A4266
:103D600001D1216A41600022A2620168491E0160FE
:103D700000BF94F82C10012088402B4909680843A3
:103D800029490860E16A01EB8101284A02EB8101BF
:103D90004868A0608268E260211D8268516081608D
:103DA000E16A01EB8101214A02EB81026261E16A71
:103DB00001EB81011D4A00E022E052F82110491C6C
:103DC000E26A02EB8202194B43F822101849E06ABA
:103DD0000968C96A88428DD901278BE700E000BFD6
:103DE00013480068C06A00EB8000104951F82000B9
:103DF000012800D901270F48006800B1012704E01D
:103E00000D480068401C0C4908603846BDE8F08148
:103E10003C000020140000200400002008000020C6
:103E20002800002030000020180000203001002071
:103E300000000020240000202000002070B5002495
:103E40000026FFF7A9FC4B480068401E494908605E
:103E50000846006800287DD147480068002879D0CE
:103E60005BE04648C068C468A06AD4E907128A606B
:103E7000D4E907214A6004F1180142688A4201D15D
:103E8000216A41600022A2620168491E01606069E6
:103E9000D4E902128A60D4E902214A60211D4268F5
:103EA0008A4201D1E1684160002262610168491ED5
:103EB000016094F82C1001208840314909680843BA
:103EC0002F490860E16A01EB81012E4A02EB810172
:103ED0004868A0608268E260211D8268516081604C
:103EE000E16A01EB8101274A02EB81026261E16A2A
:103EF00001EB8101234A52F82110491CE26A02EBCE
:103F00008202204B43F822101F49E06A0968C96AFF
:103F1000884202D301201D4908601848006808B98A
:103F2000012000E0002000289BD00CB1FFF7FEFA32
:103F30001748056865B100BFFFF7B8FE10B1012052
:103F4000124908606D1E002DF6D10020104908604E
:103F50000E4800E009E0006838B1012630070D493D
:103F60000860BFF34F8FBFF36F8FFFF727FC30461A
:103F700070BD00003C00002010000020D80300208D
:103F80001800002030010020000000202400002044
:103F90002000002004ED00E0000000000000000010
:103FA000002F000000000700070000147F147F149A
:103FB00000242A7F2A120062640813230036495520
:103FC000225000000503000000001C2241000000F8
:103FD00041221C000014083E08140008083E08088E
:103FE000000000A0600000080808080800006060E9
:103FF0000000002010080402003E5149453E000028
:10400000427F4000004261514946002141454B3109
:10401000001814127F10002745454539003C4A49D5
:104020004930000171090503003649494936000647
:104030004949291E000036360000000056360000AF
:10404000000814224100001414141414000041222A
:10405000140800020151090600324959513E007C02
:104060001211127C007F49494936003E41414122EC
:10407000007F4141221C007F49494941007F0909D5
:104080000901003E4149497A007F0808087F000085
:10409000417F4100002040413F01007F0814224140
:1040A000007F40404040007F020C027F007F0408F8
:1040B000107F003E4141413E007F09090906003E54
:1040C0004151215E007F091929460046494949317D
:1040D0000001017F0101003F4040403F001F2040A0
:1040E000201F003F4038403F00631408146300075E
:1040F0000870080700615149454300007F414100B5
:1041000000552A552A55000041417F000004020154
:104110000204004040404040000001020400002032
:1041200054545478007F4844443800384444442070
:1041300000384444487F00385454541800087E091D
:1041400001020018A4A4A47C007F080404780000E5
:10415000447D4000004080847D00007F10284400A2
:104160000000417F4000007C04180478007C0804B3
:10417000047800384444443800FC242424180018EF
:10418000242418FC007C08040408004854545420DB
:1041900000043F444020003C4040207C001C204064
:1041A000201C003C4030403C004428102844001CA7
:1041B000A0A0A07C004464544C441414141414149F
:1041C0000000000000000000000000000000FC00F3
:1041D0000000000002000000000C020C02000000C1
:1041E0000000000090D0BCD0BC9000030003000091
:1041F0001824FE448C000302070201001824D8B0E2
:104200004C80000300010201C038E438E0000102E4
:104210000201020208060000000000000000000089
:10422000000000F80402000000010204000204F88B
:1042300000000004020100009060F860900000009F
:10424000010000002020FC202000000001000000F0
:1042500000000000000008060000000020202020D0
:10426000200000000000000000000000000000022C
:10427000000000000080601C020004030000000039
:10428000F8040404F8000102020201000008FC0026
:1042900000000002030200001884442418000302F6
:1042A0000202020008042424D800010202020100D4
:1042B00040B088FC80000000000302003C2424245D
:1042C000C400010202020100F824242CC0000102F3
:1042D000020201000C04E41C0400000003000000C2
:1042E000D8242424D80001020202010038444444A6
:1042F000F8000003020201000000100000000000AE
:104300000200000000002000000000000600000085
:10431000002050880402000000000102909090905C
:1043200090000000000000000002048850200002FD
:10433000010000001804C42418000000020000005E
:10434000F804E494F80001020202020000E09CF08C
:10435000800002030000030204FC2424D8000203AE
:1043600002020100F80404040C0001020202010030
:1043700004FC0404F80002030202010004FC24749B
:104380000C0002030202030004FC24740C0002036C
:1043900002000000F0080444CC40000102020100C9
:1043A00004FC2020FC040203000003020404FC04BB
:1043B0000400020203020200000404FC04040604D8
:1043C0000403000004FC24D00C04020302000302D6
:1043D00004FC04000000020302020203FC3CC03C97
:1043E000FC0003000300030004FC30C4FC040203CF
:1043F00002000300F8040404F800010202020100B4
:1044000004FC24241800020302000000F884840441
:10441000F80001020207050004FC2464980002036E
:1044200002000302182424448C000302020201004B
:104430000C04FC040C0000020302000004FC000059
:10444000FC04000102020100047C80E01C04000066
:10445000030000001CE03CE01C000003000300001F
:10446000049C609C0400020300030200041CE01C86
:1044700004000002030200000C84641C0400020318
:10448000020203000000FE02020000000704040014
:10449000000E30C00000000000010200000202FE19
:1044A00000000004040700000004020400000000F3
:1044B00000000000000000000000080808080808CC
:1044C0000000020000000000000000000040A0A06A
:1044D000C00000010202030204FC2020C00000030F
:1044E0000202010000C02020600000010202020060
:1044F00000C02024FC0000010202030200C0A0A0B2
:10450000C0000001020202000020F824240400027E
:10451000030202000040A0A0602000070A0A0A046B
:1045200004FC2020C0000203020003020020E4007B
:104530000000000203020000000020E40000080860
:104540000807000004FC80E02020020302000302B0
:104550000404FC000000020203020200E020E0204C
:10456000C00003000300030020E02020C00002037D
:104570000200030200C02020C0000001020201006E
:1045800020E02020C000080F0A02010000C0202007
:10459000E0000001020A0F0820E040202000020392
:1045A000020000000060A0A0200000020202030040
:1045B0000020F820000000000102020020E000209E
:1045C000E00000010202030220E0208060200000E1
:1045D000030100006080E080600000030003000031
:1045E00020608060200002030003020020E02080A1
:1045F00060200808070100000020A06020000002E1
:1046000003020200000020DE020000000007040098
:10461000000000FF00000000000F00000002DE208C
:104620000000000407000000020102040402000070
:10463000000000000000000000000000000000007A
:1046400000000000000000F800000000000000333F
:104650003000000000100C06100C060000000000E6
:104660000000000040C07840C0784000043F0404CF
:104670003F040400007088FC08300000001820FF90
:10468000211E0000F008F000E018000000211C03CB
:104690001E211E0000F00888700000001E21232447
:1046A0001927211010160E00000000000000000065
:1046B00000000000000000E01804020000000007F5
:1046C0001820400000020418E000000000402018FC
:1046D00007000000404080F0804040000202010FCF
:1046E00001020200000000F0000000000101011FB3
:1046F00001010100000000000000000080B0700017
:1047000000000000000000000000000000010101A6
:104710000101010100000000000000000030300035
:10472000000000000000000080601804006018060F
:104730000100000000E010080810E000000F102049
:1047400020100F00001010F8000000000020203F93
:10475000202000000070080808887000003028241D
:1047600022213000003008888848300000182020BE
:1047700020110E000000C02010F8000000070424E3
:10478000243F240000F80888880808000019212028
:1047900020110E0000E0108888180000000F112082
:1047A00020110E0000380808C83808000000003F3B
:1047B000000000000070880808887000001C22219A
:1047C00021221C0000E010080810E0000000312247
:1047D00022110F00000000C0C000000000000030E7
:1047E0003000000000000080000000000000806039
:1047F00000000000000080402010080000010204BA
:1048000008102000404040404040400004040404A0
:10481000040404000008102040800000002010085C
:1048200004020100007048080808F0000000003091
:1048300036010000C030C828E810E000071827241F
:1048400023140B000000C038E0000000203C2302CD
:104850000227382008F8888888700000203F202030
:1048600020110E00C0300808080838000718202062
:104870002010080008F808080810E000203F202059
:1048800020100F0008F88888E8081000203F20203A
:104890002320180008F88888E8081000203F20002E
:1048A00003000000C0300808083800000718202066
:1048B000221E020008F808000008F808203F210125
:1048C00001213F20000808F8080800000020203FD0
:1048D0002020000000000808F8080800C080808040
:1048E0007F00000008F888C028180800203F200139
:1048F0002638200008F8080000000000203F202093
:104900002020300008F8F800F8F80800203F003FA9
:10491000003F200008F830C00008F808203F2000C1
:1049200007183F00E01008080810E0000F102020D2
:1049300020100F0008F808080808F000203F2101A7
:1049400001010000E01008080810E0000F182424FE
:1049500038504F0008F8888888887000203F200071
:10496000030C302000708808080838000038202127
:1049700021221C00180808F8080818000000203F31
:104980002000000008F808000008F808001F202098
:1049900020201F000878880000C838080000073869
:1049A0000E010000F80800F80008F800033C0700BA
:1049B000073C0300081868808068180820302C0322
:1049C000032C30200838C800C83808000000203FF9
:1049D0002000000010080808C838080020382621E8
:1049E00020201800000000FE020202000000007FEC
:1049F00040404000000C30C00000000000000001FA
:104A00000638C00000020202FE00000000404040E4
:104A10007F00000000000402020204000000000009
:104A20000000000000000000000000008080808086
:104A3000808080800002020400000000000000006E
:104A40000000000000008080808000000019242207
:104A500022223F2008F8008080000000003F112043
:104A600020110E000000008080800000000E112048
:104A700020201100000000808088F800000E112026
:104A800020103F200000808080800000001F222234
:104A900022221300008080F0888888180020203FA0
:104AA000202000000000808080808000006B9494B3
:104AB0009493600008F8008080800000203F21006F
:104AC00000203F2000809898000000000020203F38
:104AD00020200000000000809898000000C0808026
:104AE000807F000008F8000080808000203F2402C2
:104AF0002D302000000808F8000000000020203FB2
:104B0000202000008080808080808000203F200066
:104B10003F20003F8080008080800000203F2100F7
:104B200000203F200000808080800000001F2020A7
:104B300020201F00808000808000000080FFA120D6
:104B400020110E000000008080808000000E1120E7
:104B500020A0FF80808080008080800020203F2176
:104B60002000010000008080808080000033242429
:104B700024241900008080E0808000000000001FD5
:104B8000202000008080000000808000001F202086
:104B900020103F20808080000080808000010E3047
:104BA0000806010080800080008080800F300C03A8
:104BB0000C300F0000808000808080000020312EAB
:104BC0000E312000808080000080808080818E7087
:104BD0001806010000808080808080000021302C39
:104BE0002221300000000000807C02020000000052
:104BF000003F404000000000FF00000000000000F7
:104C0000FF0000000002027C800000000040403FE6
:104C10000000000000060101020204040000000080
:104C20000000000000000000000000000000000084
:104C30000000000000000000000000000000000074
:104C400000000000000000000000000000F0F0F094
:104C5000000000000000000000017F0100000000D3
:104C600000000000001C1C1C000000000000806010
:104C7000301C8C60301C0C000000000000000000A4
:104C80000000000000000000000000000000000024
:104C9000000000E00000000000E000000086E69F49
:104CA00086868686E69F860000011F0101010101BC
:104CB0001F010100000080C06020F820E0C000005B
:104CC000000003070C18FF70E18100000000070FCF
:104CD00010107F100F07000080602060800000002F
:104CE000E02000000F3020309F70DC371030C00013
:104CF0000000100E03000718101807000000C02065
:104D000020E0C0000000000080E01F38E88703C4F6
:104D10003C040000070F1810100B070D10100800BE
:104D200000808C4C380000000000000000000000F3
:104D30000000000000000000000000000000000073
:104D40000000000000000000000080E030080400C7
:104D50000000000000FEFF01000000000000000055
:104D60000000030F1820400000040830E08000001D
:104D7000000000000000000001FFFE000000000035
:104D8000004020180F030000000000000000000099
:104D90000000C00000000000004266663C18FF18DA
:104DA0003C666642000000000000030000000000B6
:104DB0000000000000008000000000000010101043
:104DC0001010FF1010101010000000000000030071
:104DD00000000000000000000000000000000000D3
:104DE00000000000000000000000000000808C4C6B
:104DF000380000000000000000000000000000007B
:104E00000000000000101010101010101010100002
:104E10000000000000000000000000000000000092
:104E20000000000000000000000000000000000082
:104E30000000000000001C1C1C000000000000001E
:104E40000000000000000000E0380C00000000003E
:104E500080701C03000000000060380E010000009C
:104E600000000000000080C060202060C0800000C2
:104E700000FEFF010000000001FFFE000001070E20
:104E8000181010180E0701000000808080C0E0009C
:104E9000000000000000000000FFFF000000000014
:104EA00000001010101F1F10101000000080402084
:104EB00020202060C08000000003030080402038D4
:104EC0001F070000001C1A1918181818181F0000D6
:104ED0000080C020202060C080000000000303008C
:104EE0001010182FE780000000070F101010101886
:104EF0000F070000000000000000C0E0F00000000C
:104F000000C0B088868180FFFF8080000000000024
:104F10000010101F1F1010000000E0606060606053
:104F20006060000000003F1008080818F0E0000072
:104F300000070B101010101C0F030000000080C0B1
:104F400040202020E0C0000000FCFF2110080808DD
:104F500018F0E0000001070C18101010080F0300F3
:104F60000000C0E06060606060E06000000003007E
:104F70000000E0180700000000000000001F1F00F4
:104F8000000000000080C0602020202060C0800061
:104F90000087EF2C1818303068CF830000070F0807
:104FA00010101010180F07000000C0C02020202093
:104FB000C0800000001F3F604040402010FFFE0006
:104FC00000000C1C101010080F030000000000006F
:104FD000000000000000000000000000000E0E0EA7
:104FE0000000000000000000001C1C1C000000006D
:104FF00000000000000000000000000000000000B1
:10500000000C0C00000000000000000000583800F8
:1050100000000000000000000000008040201000A0
:105020000000102844820100000000000000000081
:105030000000010204081000000000000000000051
:105040000000000000848484848484848484840038
:105050000000000000000000000000000000102020
:1050600040800000000000000000000000000182FD
:105070004428100000001008040201000000000095
:1050800000C020201010101030E0C000000303000A
:1050900000F010080C070300000000001C1C1C009E
:1050A00000000000000000C0406020202040C00040
:1050B00000FCFF01F00E03C1FE03807F0001070E1C
:1050C00008111110110904020000000080E0E00046
:1050D000000000000000807C4340477FF880000013
:1050E00010181F1000000000131F1C1020E0E0200B
:1050F00020202060C080000000FFFF10101010185A
:105100002FE78000101F1F1010101010180F07003D
:10511000000080C0402020202060E00000FCFF0153
:1051200000000000000001000001070E1810101020
:105130000804030020E0E02020202040C080000080
:1051400000FFFF000000000001FFFE00101F1F1005
:10515000101018080E07010020E0E0202020202079
:105160002060800000FFFF101010107C0000000085
:10517000101F1F10101010101018060020E0E02063
:10518000202020206060800000FFFF101010107CA5
:1051900000000100101F1F100000000000000000B0
:1051A000000080C06020202040E0000000FCFF01E3
:1051B00000004040C0C140400001070E1810101010
:1051C0000F0F000020E0E0200000000020E0E020C1
:1051D00000FFFF101010101010FFFF00101F1F1015
:1051E00000000000101F1F100000202020E0E02021
:1051F000202000000000000000FFFF000000000071
:1052000000001010101F1F10101000000000000000
:10521000202020E0E020202000000000000000FF0F
:10522000FF0000000060E0808080C07F3F00000041
:1052300020E0E020000020A06020200000FFFF30E0
:10524000187CE3C000000000101F1F1000000113B5
:105250001F1C181020E0E0200000000000000000EB
:1052600000FFFF000000000000000000101F1F10E2
:10527000101010101018060020E0E0E00000000000
:10528000E0E0E02000FF013FFEC0E01E01FFFF0064
:10529000101F1000031F0300101F1F1020E0E0C0AC
:1052A000000000000020E02000FF0003071C78E061
:1052B0008000FF00101F100000000000030F1F00FF
:1052C000000080C060202060C080000000FEFF0160
:1052D0000000000000FFFE000001070E181010186B
:1052E0000C07010020E0E0202020202060C080008A
:1052F00000FFFF2020202020301F0F00101F1F1054
:105300000000000000000000000080C0602020605D
:10531000C080000000FEFF010000000000FFFE0052
:105320000001070E1111133C7C67210020E0E020F2
:105330002020202060C0800000FFFF101030F0D03F
:10534000080F0700101F1F10000000030F1C101093
:105350000080C060202020204040E00000070F0CAB
:105360001818303060E08100001F0C081010101079
:10537000180F07008060202020E0E02020206080BF
:105380000100000000FFFF0000000001000000001D
:10539000101F1F100000000020E0E02000000000AF
:1053A0000020E02000FFFF00000000000000FF00E0
:1053B00000070F1810101010100807002060E0E020
:1053C0002000000020E060200000077FF8800080BF
:1053D0007C03000000000000071F1C070000000005
:1053E00020E0E02000E0E0200020E0200007FFF8BF
:1053F000E01FFFFCE01F00000000031F0300011F6F
:1054000003000000002060E0A0000020E060200019
:10541000000000038F7CF8C6010000000010181E79
:10542000130001171F1810002060E0E020000000AA
:1054300020E06020000001073EF8E01807000000AF
:1054400000000010101F1F101000000000806020DE
:10545000202020A0E0E0200000000000C0F03E0F6F
:105460000300000000101C1F171010101018060079
:105470000000000000FC040404040400000000001C
:1054800000FF00000000000000000000007F40401E
:1054900040404000000010E000000000000000005C
:1054A00000000000031C60800000000000000000FD
:1054B000000000030C70800000000404040404FCDD
:1054C0000000000000000000000000FF00000000DD
:1054D000000040404040407F0000000000000010FD
:1054E000080C040C08100000000000000000000080
:1054F00000000000000000000000000000000000AC
:10550000000000000000000000000000000000009B
:10551000000000000000000080808080808080808B
:105520008080808000000004040808000000000063
:10553000000000000000000000000000000000006B
:10554000000000000000000000000000000000005B
:1055500000000000000098D844642424FCF80000F7
:10556000000F1F18101010081F1F10180020E0F067
:1055700000000000000000000000FFFF1808040405
:105580000CF8F00000001F0F18101010180F030087
:1055900000000000000000000000000000E0F8181B
:1055A0000404043C3800000000030F0C101010101D
:1055B000080600000000000000000020E0F00000ED
:1055C00000E0F81C04040408FFFF000000030F18AB
:1055D000101010081F0F080000000000000000005D
:1055E000000000000000E0F8484444444C7870009B
:1055F0000000030F0C181010100804000000000039
:1056000080C0602020E0C00000040404FFFF040408
:1056100004040000000010101F1F101010000000F4
:10562000000000000000000000000000000070F812
:105630008C04048CF874040C007076CF8D8D8D89E9
:10564000C87870000020E0F00000000000000000BA
:105650000000FFFF08040404FCF8000000101F1FF6
:10566000100000101F1F100000000000006060000C
:10567000000000000000040404FCFC000000000026
:1056800000001010101F1F1010100000000000007C
:10569000000000606000000000000000040404FC42
:1056A000FC0000000000C0C08080C07F3F00000000
:1056B0000020E0F000000000000000000000FFFFFC
:1056C00080C0F41C0404000000101F1F1100031F01
:1056D0001C1010000000202020E0F000000000005E
:1056E0000000000000FFFF0000000000000010109C
:1056F000101F1F101010000000000000000000002C
:105700000000000004FCFC0804FCFC0804FCFC0095
:10571000101F1F10001F1F10001F1F10000000008F
:1057200000000000000000000004FCFC0808040465
:10573000FCF8000000101F1F100000101F1F1000B9
:1057400000000000000000000000000000E0F01871
:105750000C04040C18F0E00000030F0C10101010E3
:105760000C0F03000000000000000000000000001B
:105770000004FCFC080404040CF8F0000080FFFFA7
:10578000889010101C0F03000000000000000000B3
:105790000000000000E0F81C04040408F8FC00000D
:1057A00000030F1810109088FFFF80000000000019
:1057B0000000000000000000040404FCFC100804C9
:1057C000040C0C001010101F1F101010000000001F
:1057D0000000000000000000000000000000307821
:1057E000CCC48484840C1C0000001E1810101011FE
:1057F000190F06000000000000C0000000000000BB
:1058000000040404FFFF0404040000000000000082
:105810000F1F1010100C000000000000000000001E
:10582000000000000004FCFE00000004FCFE00007C
:1058300000000F1F181010081F0F080000000000C4
:10584000000000000000000000040C3CFCC400004C
:10585000C43C0C0400000000010F1E0E01000000FB
:10586000000000000000000000000000043CFCC438
:1058700000E47CFC84807C040000071F0700000714
:105880001F070000000000000000000000000000F2
:105890000004041C7CE4C0341C0404000010101C30
:1058A0001601131F1C18100000000000000000006B
:1058B0000000000000040C3CFCC400C43C040400D4
:1058C0000000C080C1370E01000000000000000091
:1058D000000000000000000000001C0404C4F47C70
:1058E0001C0400000000101C1F17111010180E00DF
:1058F00000000000000000F80C04000000000000A0
:10590000001028EF00000000000000000000003F31
:1059100060400000000000000000FF0000000000E8
:10592000000000000000FF00000000000000000078
:105930000000FF00000000000000040CF800000060
:105940000000000000000000EF2810000000000030
:10595000000040603F000000000000000018060248
:1059600002040810202030080000000000000000A1
:105970000000000000000000000000000000000027
:105980000000F010101010FF10101010F0000000B8
:1059900000000F04040404FF040404040F000000CA
:1059A0004040405F555555755555555F4040400046
:1059B0000040200F094989790909090F204000009A
:1059C00000FE02424ACA4A4ACA4A4A4202FE00004D
:1059D00000FF40504C4340404F50505C40FF00009F
:1059E0000000F888888888FF88888888F800000088
:1059F00000001F080808087F888888889F80F000BA
:105A000080828282828282E2A2928A868280800062
:105A1000000000000040807F000000000000000047
:105A2000101010FF109008888888FF888888080068
:105A30000444827F01808040432C102846818000EE
:105A40000010101010D030FF30D0121C10100000C9
:105A500010080402010000FF000001020408100009
:105A600004040484E43C2724242424E404040400DF
:105A700004020100FF0909090949897F00000000AB
:105A800000FE225A8600FE9292929292FE00000040
:105A900000FF04080700FF4020030C1422414000CF
:105AA0000080402018068000071820408000000079
:105AB00001002070282621202024386000010100E8
:105AC000001012929292929292121202FE00000024
:105AD0000000003F101010103F0040807F000000C9
